:100000000C94A7000C94C4000C94C4000C94C4007D
:100010000C94C4000C94C4000C94C4000C94C40050
:100020000C94C4000C94C4000C94C4000C94D61618
:100030000C94C4000C946D090C94C4000C94C4007E
:100040000C94C4000C94C4000C94C4000C94C40020
:100050000C94C40000407A10F35A00A0724E1809A4
:100060000010A5D4E80000E87648170000E40B541F
:10007000020000CA9A3B000000E1F50500008096EE
:100080009800000040420F000000A0860100000020
:10009000102700000000E8030000000064000000DA
:1000A00000000A00000000000100000000002C76A3
:1000B000D888DC674F0823DFC1DFAE59E1B1B796BE
:1000C000E5E3E453C63AE651997696E8E6C284261B
:1000D000EB898C9B62ED407C6FFCEFBC9C9F40F2F7
:1000E000BAA56FA5F490055A2AF75C936B6CF96773
:1000F0006DC11BFCE0E40D47FEF520E6B500D0ED38
:10010000902E0300943577050080841E080000209F
:100110004E0A000000C80C333333330F986E12833D
:100120001141EF8D2114893BE65516CFFEE6DB1811
:10013000D1844B381BF77C1D901DA4BBE4242032D6
:1001400084725E228100C9F124ECA1E53D271124CF
:100150001FBECFE5D8E0DEBFCDBF11E0A0E6B0E026
:10016000E6E9FEE402C005900D92A23AB107D9F784
:1001700011E0A2EAB1E001C01D92A63BB107E1F790
:100180000E94CB090C9449270C940000EF92FF9237
:100190000F931F937B018C0120E030E040E05FE48F
:1001A0000E94720488238CF0C801B70120E030E07F
:1001B00040E05FE40E943E020E94D2049B01AC0139
:1001C000205030404040504806C0C801B7010E944E
:1001D000D2049B01AC01B901CA011F910F91FF909C
:1001E000EF900895A0E0B0E0E8EFF0E00C94162264
:1001F000DC012B01FA019C91923008F439C1EB012A
:100200008881823008F433C1943069F4843009F075
:100210002FC111969C9111978981981709F428C1D3
:10022000AAE9B0E025C1843009F421C18230A9F4E3
:10023000923009F01DC19A01AD0188E0EA010990F0
:10024000AE01E90109929E018150C1F7E201898165
:1002500011969C918923818308C1923009F407C1CA
:1002600012962D903C901397EB018A819B811496F6
:10027000AD90BD90CD90DC901797EC80FD800E8105
:100280001F819101281B390BB90137FF04C0662774
:100290007727621B730B603271050CF061C0121678
:1002A00013066CF537014801062E04C09694879416
:1002B000779467940A94D2F721E030E040E050E070
:1002C00004C0220F331F441F551F6A95D2F72150D7
:1002D0003040404050402E213F21402351232115E2
:1002E00031054105510521F021E030E040E050E0CA
:1002F00079018A01E628F728082919293CC0232B0F
:10030000D1F1260E371E35014601062E04C0969403
:100310008794779467940A94D2F721E030E040E024
:1003200050E004C0220F331F441F551F6A95D2F7B7
:1003300021503040404050402A213B214C215D213A
:10034000211531054105510521F021E030E040E063
:1003500050E059016A01A628B728C828D9280BC03F
:10036000821593052CF01C01AA24BB24650103C04F
:10037000EE24FF24870111969C91D20111968C9155
:10038000981709F445C0992339F0A80197012A1953
:100390003B094C095D0906C0A60195012E193F09CC
:1003A000400B510B57FD08C01182338222822483F7
:1003B0003583468357831DC081E081833382228247
:1003C00088279927DC01821B930BA40BB50B848330
:1003D0009583A683B7830DC0220F331F441F551F7B
:1003E0002483358346835783828193810197938346
:1003F00082832481358146815781DA01C9010197C1
:10040000A109B1098F5F9F4FAF4FBF4328F30BC0C6
:10041000918333822282EA0CFB1C0C1D1D1DE48299
:10042000F5820683178383E08083248135814681AA
:10043000578157FF1AC0C901AA2797FDA095BA2F67
:1004400081709070A070B07056954795379527953C
:10045000822B932BA42BB52B84839583A683B78300
:1004600082819381019693838283DF0101C0D2014F
:10047000CD01CDB7DEB7E2E10C943222A0E2B0E0CC
:10048000E4E4F2E00C94222269837A838B839C83D8
:100490002D833E834F835887E9E0EE2EF12CEC0E3E
:1004A000FD1ECE010196B7010E94C3068E010F5EAC
:1004B0001F4FCE010596B8010E94C3068A8991E0BC
:1004C00089278A8BC701B801AE01475E5F4F0E9442
:1004D000F2000E94EE05A096E6E00C943E22A0E217
:1004E000B0E0E5E7F2E00C94222269837A838B8303
:1004F0009C832D833E834F835887F9E0EF2EF12CA8
:10050000EC0EFD1ECE010196B7010E94C3068E01BE
:100510000F5E1F4FCE010596B8010E94C306C701AA
:10052000B801AE01475E5F4F0E94F2000E94EE05E7
:10053000A096E6E00C943E22A0E2B0E0E2EAF2E00F
:100540000C94162269837A838B839C832D833E834C
:100550004F835887CE010196BE01675F7F4F0E948F
:10056000C306CE010596BE016F5E7F4F0E94C30693
:100570009985923088F089898230C8F0943019F4D6
:10058000823051F404C0843029F4923081F48AE935
:1005900090E0C6C0923049F420E09A858A89981389
:1005A00021E02A87CE010996BBC0823049F420E0C1
:1005B0009A858A89981321E02A8BCE014196B0C092
:1005C0002D843E844F8458886D887E888F88988CCF
:1005D000EE24FF248701AA24BB24650140E050E0FB
:1005E00060E070E0E0E0F0E0C10181709070892B84
:1005F000E9F0E60CF71C081D191D9A01AB012A0D44
:100600003B1D4C1D5D1D80E090E0A0E0B0E0E614D5
:10061000F7040805190520F481E090E0A0E0B0E0BF
:10062000BA01A901480F591F6A1F7B1FAA0CBB1CE6
:10063000CC1CDD1C97FE08C081E090E0A0E0B0E09B
:10064000A82AB92ACA2ADB2A3196E032F10549F0F4
:10065000660C771C881C991C5694479437942794F1
:10066000C3CFFA85EA892B893C898B859C85280F25
:10067000391F2E5F3F4F17C0CA0181709070892BC0
:1006800061F016950795F794E79480E090E0A0E07C
:10069000B0E8E82AF92A0A2B1B2B7695679557951F
:1006A00047952F5F3F4F77FDE7CF0CC0440F551F95
:1006B000661F771F17FD4160EE0CFF1C001F111F06
:1006C00021503040403090E0590790E0690790E4B5
:1006D000790760F32B8F3C8FDB01CA018F77907015
:1006E000A070B07080349105A105B10561F447FD9B
:1006F0000AC0E114F1040105110529F0405C5F4FC7
:100700006F4F7F4F40781A8EFE1711F081E08A8F6D
:100710004D8F5E8F6F8F78A383E0898FCE014996CE
:100720000E94EE05A096E2E10C943222A8E1B0E02E
:10073000ECE9F3E00C941E2269837A838B839C831B
:100740002D833E834F835887B9E0EB2EF12CEC0EBE
:10075000FD1ECE010196B7010E94C3068E010F5EF9
:100760001F4FCE010596B8010E94C306298522308D
:1007700008F47EC03989323010F4B8017CC08A8513
:100780009A8989278A87243011F0223031F423177F
:1007900009F06EC06AE970E06EC0343039F41D862D
:1007A0001E861F86188A1C861B8604C0323021F4E0
:1007B00084E08987B7015FC02B853C858B899C8944
:1007C000281B390B3C872B87ED84FE840F85188905
:1007D000AD88BE88CF88D88CEA14FB040C051D05B3
:1007E00040F4EE0CFF1C001F111F215030403C87CD
:1007F0002B8720E030E040E050E080E090E0A0E097
:10080000B0E460E070E0EA14FB040C051D0540F064
:10081000282B392B4A2B5B2BEA18FB080C091D09E6
:10082000B695A79597958795EE0CFF1C001F111F95
:100830006F5F7F4F6F31710531F7DA01C9018F7733
:100840009070A070B07080349105A105B10561F47D
:1008500027FD0AC0E114F1040105110529F0205C0F
:100860003F4F4F4F5F4F20782D873E874F87588BE4
:10087000BE01675F7F4FCB010E94EE056896EAE0FC
:100880000C943A22A8E1B0E0E8E4F4E00C942222CF
:1008900069837A838B839C832D833E834F83588720
:1008A00089E0E82EF12CEC0EFD1ECE010196B70179
:1008B0000E94C3068E010F5E1F4FCE010596B80140
:1008C0000E94C3068985823040F08989823028F0F1
:1008D000C701B8010E943B0701C08FEF6896E6E0B0
:1008E0000C943E22A8E1B0E0E8E7F4E00C94222268
:1008F00069837A838B839C832D833E834F835887C0
:1009000089E0E82EF12CEC0EFD1ECE010196B70118
:100910000E94C3068E010F5E1F4FCE010596B801DF
:100920000E94C3068985823040F08989823028F090
:10093000C701B8010E943B0701C08FEF6896E6E04F
:100940000C943E22A8E1B0E0E8EAF4E00C94222204
:1009500069837A838B839C832D833E834F8358875F
:1009600089E0E82EF12CEC0EFD1ECE010196B701B8
:100970000E94C3068E010F5E1F4FCE010596B8017F
:100980000E94C3068985823040F08989823028F030
:10099000C701B8010E943B0701C081E06896E6E00C
:1009A0000C943E22ACE0B0E0E8EDF4E00C9426229A
:1009B00069837A838B839C83CE010196BE016B5F32
:1009C0007F4F0E94C3068D81823061F1823050F1E9
:1009D000843021F48E81882351F12EC02F813885F7
:1009E00037FD20C06E812F3131051CF06623F9F0F0
:1009F00023C08EE190E0821B930B29853A854B85BD
:100A00005C8504C056954795379527958A95D2F70A
:100A10006623B1F050954095309521953F4F4F4F4B
:100A20005F4F0EC020E030E040E050E009C02FEF03
:100A30003FEF4FEF5FE704C020E030E040E050E8D8
:100A4000B901CA012C96E2E00C944222A8E0B0E081
:100A5000ECE2F5E00C941E227B018C01611571051E
:100A60008105910519F482E0898360C083E0898360
:100A70008EE1C82ED12CDC82CB82ED82FE820F83E8
:100A80001887C801B7010E949F05FC013197F7FF45
:100A90003BC0222733272E1B3F0B57016801022E34
:100AA00004C0D694C794B794A7940A94D2F740E0B0
:100AB00050E060E070E081E090E0A0E0B0E004C0D1
:100AC000880F991FAA1FBB1F2A95D2F70197A1096A
:100AD000B1098E219F21A023B1230097A105B10563
:100AE00021F041E050E060E070E04A295B296C2988
:100AF0007D294D835E836F8378878EE190E08E1B26
:100B00009F0B9C838B8312C0309781F00E2E04C004
:100B1000EE0CFF1C001F111F0A94D2F7ED82FE821B
:100B20000F831887CE1ADF0ADC82CB821A82CE01AD
:100B300001960E94EE052896EAE00C943A22EF9284
:100B4000FF920F931F937B018C0180E0E81680E0F9
:100B5000F80681E0080780E0180788F48FEFE816B0
:100B6000F1040105110531F028F088E090E0A0E0E3
:100B7000B0E017C080E090E0A0E0B0E012C080E0FC
:100B8000E81680E0F80680E0080781E0180728F002
:100B900088E190E0A0E0B0E004C080E190E0A0E057
:100BA000B0E020E230E040E050E0281B390B4A0B77
:100BB0005B0B04C016950795F794E7948A95D2F7D6
:100BC000F701EE55FF4F8081281B3109410951097A
:100BD000C9011F910F91FF90EF900895DF92EF925E
:100BE000FF920F931F93FC01E480F580068117812B
:100BF000D1808081823048F480E090E0A0E1B0E0D4
:100C0000E82AF92A0A2B1B2BA5C0843009F49FC0BF
:100C1000823021F4EE24FF24870105C0E114F104A1
:100C20000105110519F4E0E0F0E096C062817381DE
:100C30009FEF623879070CF05BC022E83FEF261B7C
:100C4000370B2A3131052CF020E030E040E050E055
:100C50002AC0B801A701022E04C076956795579562
:100C600047950A94D2F781E090E0A0E0B0E004C09C
:100C7000880F991FAA1FBB1F2A95D2F70197A109B8
:100C8000B1098E219F21A023B1230097A105B105B1
:100C900021F081E090E0A0E0B0E09A01AB01282BC8
:100CA000392B4A2B5B2BDA01C9018F779070A0702A
:100CB000B07080349105A105B10539F427FF09C052
:100CC000205C3F4F4F4F5F4F04C0215C3F4F4F4F61
:100CD0005F4FE0E0F0E02030A0E03A07A0E04A07F4
:100CE000A0E45A0710F0E1E0F0E079018A0127C0A2
:100CF0006038710564F5FB01E158FF4FD801C70169
:100D00008F779070A070B07080349105A105B10507
:100D100039F4E7FE0DC080E490E0A0E0B0E004C04C
:100D20008FE390E0A0E0B0E0E80EF91E0A1F1B1F61
:100D300017FF05C016950795F794E794319687E05D
:100D400016950795F794E7948A95D1F705C0EE2498
:100D5000FF248701EFEFF0E06E2F67956627679518
:100D6000902F9F77D794DD24D7948E2F8695492F87
:100D7000462B582F5D29B701CA011F910F91FF9093
:100D8000EF90DF900895FC01DB01408151812281C9
:100D9000622F6F7770E0221F2227221F9381892FF5
:100DA000880F822B282F30E0991F9927991F1196C1
:100DB0009C93119721153105A9F541155105610540
:100DC000710511F482E037C082E89FEF13969C937F
:100DD0008E9312979A01AB0167E0220F331F441FD5
:100DE000551F6A95D1F783E08C930DC0220F331FF6
:100DF000441F551F12968D919C911397019713963E
:100E00009C938E931297203080E0380780E048074B
:100E100080E4580758F314962D933D934D935C93BB
:100E2000179708952F3F310579F441155105610554
:100E3000710519F484E08C93089564FF03C081E088
:100E40008C9312C01C9210C02F57304013963C93C5
:100E50002E93129783E08C9387E0440F551F661FF3
:100E6000771F8A95D1F7706414964D935D936D93B7
:100E70007C93179708951F93DC01FB019C9192309E
:100E800008F447C08081823008F443C0943051F4A4
:100E900011961C91843099F58181682F70E0611B57
:100EA00071093FC0843021F0923031F48230B9F1C1
:100EB0008181882389F12DC011961C911197823070
:100EC000F1F081811817D9F412962D913C91139766
:100ED000828193818217930794F028173907BCF019
:100EE00014968D919D910D90BC91A02D24813581FA
:100EF00046815781281739074A075B0718F41123E1
:100F000041F00AC082179307A407B50740F41123E4
:100F100019F061E070E005C06FEF7FEF02C060E0A4
:100F200070E0CB011F910895DF93CF93CDB7DEB76B
:100F30000E94A00782E30E940B10CF91DF910895D9
:100F4000DF93CF93CDB7DEB780E060E00E94700FF3
:100F500081E060E00E94700FCF91DF910895DF93F0
:100F6000CF93CDB7DEB780E061E00E94700F81E0E3
:100F700061E00E94700FCF91DF910895DF93CF93CE
:100F8000CDB7DEB72E970FB6F894DEBF0FBECDBF3C
:100F900080E00E941F1081E00E941F1080E090E01E
:100FA000AAE7B4E48B879C87AD87BE876B857C8579
:100FB0008D859E8520E030E04AE755E40E949C0242
:100FC000DC01CB018F839887A987BA876F817885E9
:100FD00089859A8520E030E040E85FE30E94A20422
:100FE00088232CF481E090E09E838D833FC06F8145
:100FF000788589859A8520E03FEF4FE757E40E9486
:10100000420418164CF56B857C858D859E8520E005
:1010100030E040E251E40E949C02DC01CB01BC01C3
:10102000CD010E94C600DC01CB019E838D830FC0E1
:1010300080E991E09C838B838B819C810197F1F700
:101040009C838B838D819E8101979E838D838D816F
:101050009E81009769F714C06F81788589859A858C
:101060000E94C600DC01CB019E838D838D819E8111
:101070009A83898389819A810197F1F79A83898379
:1010800080E00E94CD0F81E00E94CD0F2E960FB61A
:10109000F894DEBF0FBECDBFCF91DF910895DF93EF
:1010A000CF93CDB7DEB72E970FB6F894DEBF0FBE45
:1010B000CDBF80E061E00E94700F81E060E00E949F
:1010C000700F80E090E0A1EEB3E48B879C87AD8742
:1010D000BE876B857C858D859E8520E030E04AE764
:1010E00055E40E949C02DC01CB018F839887A9877D
:1010F000BA876F81788589859A8520E030E040E85D
:101100005FE30E94A20488232CF481E090E09E8398
:101110008D833FC06F81788589859A8520E03FEF78
:101120004FE757E40E94420418164CF56B857C8506
:101130008D859E8520E030E040E251E40E949C02D3
:10114000DC01CB01BC01CD010E94C600DC01CB015A
:101150009E838D830FC080E991E09C838B838B817C
:101160009C810197F1F79C838B838D819E810197F0
:101170009E838D838D819E81009769F714C06F8156
:10118000788589859A850E94C600DC01CB019E8303
:101190008D838D819E819A83898389819A8101972C
:1011A000F1F79A8389830E94BE072E960FB6F894B2
:1011B000DEBF0FBECDBFCF91DF910895DF93CF93F8
:1011C000CDB7DEB72E970FB6F894DEBF0FBECDBFFA
:1011D00080E060E00E94700F81E061E00E94700F8B
:1011E00080E090E8ABE3B4E48B879C87AD87BE8753
:1011F0006B857C858D859E8520E030E04AE755E44F
:101200000E949C02DC01CB018F839887A987BA8753
:101210006F81788589859A8520E030E040E85FE33A
:101220000E94A20488232CF481E090E09E838D83A9
:101230003FC06F81788589859A8520E03FEF4FE731
:1012400057E40E94420418164CF56B857C858D8509
:101250009E8520E030E040E251E40E949C02DC01E7
:10126000CB01BC01CD010E94C600DC01CB019E83F5
:101270008D830FC080E991E09C838B838B819C815F
:101280000197F1F79C838B838D819E8101979E83CB
:101290008D838D819E81009769F714C06F81788559
:1012A00089859A850E94C600DC01CB019E838D83CF
:1012B0008D819E819A83898389819A810197F1F733
:1012C0009A8389830E94BE072E960FB6F894DEBFDC
:1012D0000FBECDBFCF91DF9108951F920F920FB631
:1012E0000F9211242F933F934F935F936F937F93AC
:1012F0008F939F93AF93BF93EF93FF93DF93CF931E
:1013000000D0CDB7DEB7ECE2F0E080818093A3019E
:1013100081E060E00E942B0F80E690E00E945F0E6B
:1013200081E069E00E942B0F8091A3010E94380E9A
:101330008091A301282F30E03A83298389819A8103
:101340008436910571F029813A812837310531F0D1
:1013500089819A818136910539F008C00E94BE07C3
:1013600005C00E944F0802C00E94DE080F900F9037
:10137000CF91DF91FF91EF91BF91AF919F918F91AD
:101380007F916F915F914F913F912F910F900FBE81
:101390000F901F901895EF920F93DF93CF9300D08B
:1013A000CDB7DEB760E875E280E090E042E023E090
:1013B00000E0EE240E9453100E94A01082E790E00B
:1013C0000E94CA100E94410C86E890E00E945F0EC5
:1013D0000E94520F8091A301282F30E03A83298385
:1013E00089819A818337910581F029813A81273754
:1013F000310541F089819A818137910559F70E9421
:101400009407E8CF0E94A007E5CF0E94AF07E2CF84
:10141000DF93CF93CDB7DEB781E00E948B1562E3F7
:1014200070E080E090E00E94F81581E00E94622068
:10143000CF91DF910895AF92BF92CF92DF92EF925A
:10144000FF920F931F93DF93CF9300D0CDB7DEB7FA
:101450008A838A81853B08F045C08A81882F90E085
:10146000A0E0B0E0BC01CD010E9426059B01AC01CB
:1014700000D000D0EDB7FEB7319680E090E0A0E458
:10148000B1E480839183A283B383CA01B90120E0D0
:1014900030E040E050E00F2EF0E0EF2EF0E0FF2EC5
:1014A000F4E30F2FF3E41F2FF02D0F2EF0E0AF2EFB
:1014B000F0E0BF2EF0E4CF2EF0E4DF2EF02D0E94FE
:1014C00037210F900F900F900F90DC01CB01BC01E2
:1014D000CD010E94C600DC01CB01898381E06981D6
:1014E0000E947A160F900F90CF91DF911F910F916C
:1014F000FF90EF90DF90CF90BF90AF900895AF92A4
:10150000BF92CF92DF92EF92FF920F931F93DF93E0
:10151000CF9300D0CDB7DEB78A838A810E948F2017
:10152000CC01A0E0B0E0BC01CD010E9426059B01EA
:10153000AC0100D000D0EDB7FEB7319680E090E06E
:10154000A0E4B1E480839183A283B383CA01B9018B
:1015500020E030E040E050E00F2EF0E0EF2EF0EC25
:10156000FF2EFFE70F2FF4E41F2FF02D0F2EF0E0DA
:10157000AF2EF0E0BF2EF0E4CF2EF0E4DF2EF02D02
:101580000E9437210F900F900F900F90DC01CB013C
:10159000BC01CD010E94C600DC01CB01898381E042
:1015A00069810E947A160F900F90CF91DF911F9161
:1015B0000F91FF90EF90DF90CF90BF90AF90089584
:1015C000DF93CF93CDB7DEB781E00E942416CF9191
:1015D000DF910895DF93CF93CDB7DEB781E00E940E
:1015E0004F16CF91DF910895DF93CF93CDB7DEB73C
:1015F000A6970FB6F894DEBF0FBECDBF83E061E0C3
:1016000041E00E94971D80E090E0A0E8BFE38BA33B
:101610009CA3ADA3BEA36BA17CA18DA19EA12BEA2F
:101620003AEA4AEA50E40E949C02DC01CB018F8F27
:1016300098A3A9A3BAA36F8D78A189A19AA120E04C
:1016400030E040E85FE30E94A20488231CF481E0BC
:101650008E8F91C06F8D78A189A19AA120E030E092
:101660004FE753E40E94420418160CF07BC06BA1B4
:101670007CA18DA19EA120E030E04AE754E40E94C5
:101680009603DC01CB018A8F9B8FAC8FBD8F6A8D57
:101690007B8D8C8D9D8D20E030E04AE755E40E94E3
:1016A0009C02DC01CB018E8B9F8BA88FB98F6E893A
:1016B0007F89888D998D20E030E040E85FE30E94CB
:1016C000A20488232CF481E090E09D8B8C8B3FC09A
:1016D0006E897F89888D998D20E03FEF4FE757E431
:1016E0000E94420418164CF56A8D7B8D8C8D9D8D61
:1016F00020E030E040E251E40E949C02DC01CB019A
:10170000BC01CD010E94C600DC01CB019D8B8C8BFE
:101710000FC080E991E09B8B8A8B8A899B89019716
:10172000F1F79B8B8A8B8C899D8901979D8B8C8B84
:101730008C899D89009769F724C06E897F89888D7F
:10174000998D0E94C600DC01CB019D8B8C8B8C890E
:101750009D89998B888B888999890197F1F7998B55
:10176000888B0FC06F8D78A189A19AA10E94C600B5
:10177000DC01CB018E8F8E8D8F878F858A95F1F757
:101780008F8783E061E040E00E94971D80E090E059
:10179000A0E0B0E48B879C87AD87BE876B857C8596
:1017A0008D859E8520E030E04AE755E40E949C024A
:1017B000DC01CB018F839887A987BA876F817885F1
:1017C00089859A8520E030E040E85FE30E94A2042A
:1017D00088232CF481E090E09E838D833FC06F814D
:1017E000788589859A8520E03FEF4FE757E40E948E
:1017F000420418164CF56B857C858D859E8520E00E
:1018000030E040E251E40E949C02DC01CB01BC01CB
:10181000CD010E94C600DC01CB019E838D830FC0E9
:1018200080E991E09C838B838B819C810197F1F708
:101830009C838B838D819E8101979E838D838D8177
:101840009E81009769F714C06F81788589859A8594
:101850000E94C600DC01CB019E838D838D819E8119
:101860009A83898389819A810197F1F79A83898381
:10187000A6960FB6F894DEBF0FBECDBFCF91DF9115
:101880000895DF93CF93CDB7DEB7E4970FB6F89402
:10189000DEBF0FBECDBF84E060E041E00E94B41C1B
:1018A00085E060E041E00E94B41C86E060E041E039
:1018B0000E94B41C87E060E041E00E94B41C81E01B
:1018C00061E041E00E94B41C82E061E041E00E94DE
:1018D000B41C83E061E041E00E94B41C83E061E05D
:1018E00040E00E94971D82E061E040E00E94971D69
:1018F00080E090E0A0E7B1E489AB9AABABABBCABC6
:1019000069A97AA98BA99CA920E030E04AE755E4AF
:101910000E949C02DC01CB018DA79EA7AFA7B8ABAC
:101920006DA57EA58FA598A920E030E040E85FE393
:101930000E94A20488232CF481E090E09CA78BA74E
:101940003FC06DA57EA58FA598A920E03FEF4FE78A
:1019500057E40E94420418164CF569A97AA98BA98C
:101960009CA920E030E040E251E40E949C02DC01AE
:10197000CB01BC01CD010E94C600DC01CB019CA7BC
:101980008BA70FC080E991E09AA789A789A59AA59E
:101990000197F1F79AA789A78BA59CA501979CA70A
:1019A0008BA78BA59CA5009769F714C06DA57EA594
:1019B0008FA598A90E94C600DC01CB019CA78BA72C
:1019C0008BA59CA598A78FA38FA198A50197F1F748
:1019D00098A78FA383E00E94040F80E090E0A0EA24
:1019E000B0E48BA39CA3ADA3BEA36BA17CA18DA1EE
:1019F0009EA120E030E04AE755E40E949C02DC0111
:101A0000CB018F8F98A3A9A3BAA36F8D78A189A1C9
:101A10009AA120E030E040E85FE30E94A20488231E
:101A20002CF481E090E09E8F8D8F3FC06F8D78A168
:101A300089A19AA120E03FEF4FE757E40E944204BA
:101A400018164CF56BA17CA18DA19EA120E030E081
:101A500040E251E40E949C02DC01CB01BC01CD01BB
:101A60000E94C600DC01CB019E8F8D8F0FC080E9E4
:101A700091E09C8F8B8F8B8D9C8D0197F1F79C8FC4
:101A80008B8F8D8D9E8D01979E8F8D8F8D8D9E8DD1
:101A9000009769F714C06F8D78A189A19AA10E945F
:101AA000C600DC01CB019E8F8D8F8D8D9E8D9A8F10
:101AB000898F898D9A8D0197F1F79A8F898F83E0AD
:101AC0000E94040F80E090E0A8ECB2E48D8B9E8B26
:101AD000AF8BB88F6D897E898F89988D2BEA3AEA12
:101AE0004AEA50E40E949C02DC01CB01898B9A8B6C
:101AF000AB8BBC8B69897A898B899C8920E030E02B
:101B000040E85FE30E94A20488231CF481E0888BF4
:101B100091C069897A898B899C8920E030E04FE700
:101B200053E40E94420418160CF07BC06D897E8934
:101B30008F89988D20E030E04AE754E40E949603B4
:101B4000DC01CB018C879D87AE87BF876C857D8547
:101B50008E859F8520E030E04AE755E40E949C0294
:101B6000DC01CB0188879987AA87BB87688579853F
:101B70008A859B8520E030E040E85FE30E94A20474
:101B800088232CF481E090E09F838E833FC068859A
:101B900079858A859B8520E03FEF4FE757E40E94D7
:101BA000420418164CF56C857D858E859F8520E056
:101BB00030E040E251E40E949C02DC01CB01BC0118
:101BC000CD010E94C600DC01CB019F838E830FC034
:101BD00080E991E09D838C838C819D810197F1F751
:101BE0009D838C838E819F8101979F838E838E81BD
:101BF0009F81009769F724C0688579858A859B85D0
:101C00000E94C600DC01CB019F838E838E819F8161
:101C10009B838A838A819B810197F1F79B838A83C7
:101C20000FC069897A898B899C890E94C600DC0172
:101C3000CB01888B8889898389818A95F1F789838B
:101C400083E00E94040F82E00E94040F88E20E9459
:101C5000040F81E00E94040F8CE00E94040FE496C0
:101C60000FB6F894DEBF0FBECDBFCF91DF910895C0
:101C7000DF93CF9300D00F92CDB7DEB78B838B81EC
:101C8000807F8A838B818295807F898381E061E078
:101C900041E00E94971D8A816FE040E00E947A1E19
:101CA0000E94F40A89816FE040E00E947A1E0E943F
:101CB000F40A0F900F900F90CF91DF910895DF936A
:101CC000CF9300D000D0CDB7DEB79C838B831A8230
:101CD000198222C029813A818B819C81FC01E20F0B
:101CE000F31F80818823E9F089819A8180319105F1
:101CF00021F481E060E00E942B0F29813A818B81E1
:101D00009C81FC01E20FF31F80810E94380E8981C3
:101D10009A8101969A83898389819A81803291057B
:101D2000CCF20F900F900F900F90CF91DF9108950C
:101D3000DF93CF93CDB7DEB72E970FB6F894DEBF03
:101D40000FBECDBF6B877C878D879E878DB79EB773
:101D500008970FB6F8949EBF0FBE8DBFEDB7FEB7C4
:101D60003196CE0101969183808387E990E0938339
:101D700082838B859C85AD85BE8584839583A68370
:101D8000B7830E946E228DB79EB708960FB6F8945F
:101D90009EBF0FBE8DBFCE0101960E945F0E2E9694
:101DA0000FB6F894DEBF0FBECDBFCF91DF9108957F
:101DB0000F931F93DF93CF93CDB7DEB763970FB623
:101DC000F894DEBF0FBECDBF688B798B8A8B9B8B5F
:101DD00088899989AA89BB89BC01CD0147E022E0A5
:101DE000FE0131968F010E944D22CE0101960E9484
:101DF0005F0E63960FB6F894DEBF0FBECDBFCF91D6
:101E0000DF911F910F910895DF93CF9300D00F9230
:101E1000CDB7DEB78B838B81807F8A838B81829560
:101E2000807F898381E061E040E00E94971D8A8184
:101E30006FE040E00E947A1E0E94F40A89816FE000
:101E400040E00E947A1E0E94F40A0F900F900F90BB
:101E5000CF91DF910895DF93CF9300D000D0CDB71D
:101E6000DEB789836A838981282F30E03C832B8306
:101E70008B819C81009731F02B813C812130310591
:101E800031F009C08A8180580E94040F04C08A8101
:101E900080540E94040F0F900F900F900F90CF91DD
:101EA000DF910895DF93CF93CDB7DEB783E062E093
:101EB00041E00E94B41C84E062E041E00E94B41C56
:101EC00085E062E041E00E94B41C86E062E041E00F
:101ED0000E94B41C81E00E948B15CF91DF91089580
:101EE000DF93CF9300D000D0CDB7DEB789836A836C
:101EF0008981282F30E03C832B838B819C81009744
:101F000031F02B813C812130310509F13FC08A81BC
:101F1000882359F483E062E040E00E94971D84E04A
:101F200062E041E00E94971D0AC084E062E040E068
:101F30000E94971D83E062E041E00E94971D81E0CE
:101F400063E60E947A1681E00E9494141FC08A8181
:101F5000882359F486E062E040E00E94971D85E006
:101F600062E041E00E94971D0AC085E062E040E027
:101F70000E94971D86E062E041E00E94971D81E08B
:101F800063E60E947A1681E00E9494140F900F90ED
:101F90000F900F90CF91DF910895DF93CF9300D0F2
:101FA0000F92CDB7DEB789838981282F30E03B833C
:101FB0002A838A819B81009731F02A813B812130DD
:101FC000310589F01FC084E063E040E00E94971D66
:101FD00083E062E040E00E94971D84E062E040E020
:101FE0000E94971D0FC084E063E040E00E94971DAF
:101FF00085E062E040E00E94971D86E062E040E0FC
:102000000E94971D81E00E944F160F900F900F9035
:10201000CF91DF910895DF93CF930F92CDB7DEB7C5
:10202000898381E00E94DB1481E069810E947A1635
:1020300081E00E9424160F90CF91DF910895DF93E5
:10204000CF9300D00F92CDB7DEB789838981282F37
:1020500030E03B832A838A819B81009731F02A817B
:102060003B812130310561F015C083E062E041E041
:102070000E94971D84E062E041E00E94971D0AC023
:1020800085E062E041E00E94971D86E062E041E069
:102090000E94971D81E00E944F160F900F900F90A5
:1020A000CF91DF910895EF920F93DF93CF93CDB748
:1020B000DEB72A970FB6F894DEBF0FBECDBF698397
:1020C0007A838B839C834D832E830F83E8868D8157
:1020D000282F30E03A87298789859A8581309105B4
:1020E00071F029853A852230310571F089859A850C
:1020F000009771F40E9452130E94371309C00E9486
:1021000024130E94651304C00E9424130E945213DA
:102110008E816F8148850E94081189819A81AB81E7
:10212000BC81BC01CD010E9478132A960FB6F894A9
:10213000DEBF0FBECDBFCF91DF910F91EF9008951D
:10214000DF93CF93CDB7DEB70E94981CAAE2B0E030
:10215000EAE2F0E0808180688C93CF91DF9108956E
:10216000DF93CF930F92CDB7DEB78983EBE2F0E038
:102170008081829586958770882F90E0817090701D
:102180000097A1F3ECE2F0E0898180830F90CF917A
:10219000DF910895DF93CF9300D00F92CDB7DEB7D4
:1021A0009B838A8319820EC08981282F30E08A811F
:1021B0009B81FC01E20FF31F80810E94B010898196
:1021C0008F5F89838981282F30E08A819B81FC0180
:1021D000E20FF31F8081882339F70F900F900F9043
:1021E000CF91DF910895DF93CF930F92CDB7DEB7F4
:1021F000EBE2F0E0808188232CF4ECE2F0E08081D7
:10220000898301C0198289810F90CF91DF91089550
:10221000DF93CF93CDB7DEB769970FB6F894DEBFE3
:102220000FBECDBF89836A834B838981282F30E01D
:10223000398F288F888D998D8230910509F4DFC000
:10224000288D398D233031055CF4888D998D009768
:10225000A1F0288D398D2130310509F46FC0EBC113
:10226000888D998D8330910509F42AC1288D398D87
:102270002430310509F47FC1DEC18A81813079F5CE
:102280008B81282F30E03F8B2E8B8E899F89823067
:10229000910599F02E893F8923303105B9F08E8957
:1022A0009F89009709F0C7C1A0E4B0E0E0E4F0E046
:1022B0008081817788688C93BEC1A0E4B0E0E0E4BF
:1022C000F0E080818175886A8C93B5C1A0E4B0E0AC
:1022D000E0E4F0E080818174886B8C93ACC18B81E9
:1022E000282F30E03D8B2C8B8C899D898230910585
:1022F00099F02C893D8923303105B9F08C899D896D
:10230000009709F098C1A0E4B0E0E0E4F0E080813B
:10231000897780688C938FC1A0E4B0E0E0E4F0E0BE
:1023200080818975806A8C9386C1A0E4B0E0E0E486
:10233000F0E080818974806B8C937DC18A818130CB
:1023400079F58B81282F30E03B8B2A8B8A899B89FA
:102350008230910599F02A893B8923303105B9F003
:102360008A899B89009709F066C1A0E4B0E0E0E4A7
:10237000F0E0808181778A688C935DC1A0E4B0E051
:10238000E0E4F0E0808181758A6A8C9354C1A0E416
:10239000B0E0E0E4F0E0808181748A6B8C934BC103
:1023A0008B81282F30E0398B288B8889998982305E
:1023B000910599F02889398923303105B9F0888948
:1023C0009989009709F037C1A0E4B0E0E0E4F0E0BB
:1023D0008081897782688C932EC1A0E4B0E0E0E42C
:1023E000F0E080818975826A8C9325C1A0E4B0E019
:1023F000E0E4F0E080818974826B8C931CC18A8157
:10240000813079F58B81282F30E03F872E878E85AC
:102410009F858230910599F02E853F8523303105C7
:10242000B9F08E859F85009709F005C1A0E4B0E062
:10243000E0E4F0E0808181778C688C93FCC0A0E4BC
:10244000B0E0E0E4F0E0808181758C6A8C93F3C0A9
:10245000A0E4B0E0E0E4F0E0808181748C6B8C93C8
:10246000EAC08B81282F30E03D872C878C859D85A5
:102470008230910599F02C853D8523303105B9F0E6
:102480008C859D85009709F0D6C0A0E4B0E0E0E41B
:10249000F0E08081897784688C93CDC0A0E4B0E0BF
:1024A000E0E4F0E080818975846A8C93C4C0A0E484
:1024B000B0E0E0E4F0E080818974846B8C93BBC071
:1024C0008A81813061F58B81282F30E03B872A8714
:1024D0008A859B858230910591F02A853B85233042
:1024E0003105A9F08A859B85009709F0A4C0A0E476
:1024F000B0E0E0E4F0E080818E688C939CC0A0E4C2
:10250000B0E0E0E4F0E080818E6A8C9394C0A0E4B7
:10251000B0E0E0E4F0E080818E6B8C938CC08B8126
:10252000282F30E039872887888599858230910562
:1025300091F02885398523303105A9F08885998562
:10254000009709F078C0A0E4B0E0E0E4F0E080811A
:1025500086688C9370C0A0E4B0E0E0E4F0E0808195
:10256000866A8C9368C0A0E4B0E0E0E4F0E080818B
:10257000866B8C9360C0AAE2B0E0EAE2F0E0808172
:1025800084608C938A81813061F58B81282F30E0C3
:102590003F832E838E819F818230910591F02E8121
:1025A0003F8123303105A9F08E819F81009709F08A
:1025B00042C0A0E4B0E0E0E4F0E080818E688C935B
:1025C0003AC0A0E4B0E0E0E4F0E080818E6A8C9351
:1025D00032C0A0E4B0E0E0E4F0E080818E6B8C9348
:1025E0002AC08B81282F30E03D832C838C819D81F4
:1025F0008230910589F02C813D8123303105A1F095
:102600008C819D810097B9F4A0E4B0E0E0E4F0E0B3
:10261000808186688C930FC0A0E4B0E0E0E4F0E035
:102620008081866A8C9307C0A0E4B0E0E0E4F0E02B
:102630008081866B8C9369960FB6F894DEBF0FBECF
:10264000CDBFCF91DF910895DF93CF93CDB7DEB7A4
:1026500081E063E041E00E94B41CAAE2B0E0EAE25B
:10266000F0E0808188608C93CF91DF910895DF93B3
:10267000CF93CDB7DEB7EBE2F0E08081829586950F
:1026800086958370882F90E081709070009799F301
:10269000AAE2B0E0EAE2F0E08081877F8C93CF91FC
:1026A000DF910895DF93CF93CDB7DEB780E063E08D
:1026B00040E00E94B41CAAE2B0E0EAE2F0E08081CF
:1026C00080618C93CF91DF910895DF93CF93CDB745
:1026D000DEB7EBE2F0E080818823DCF7AAE2B0E02D
:1026E000EAE2F0E080818F7E8C93CF91DF910895B4
:1026F0000F931F93DF93CF9300D000D0CDB7DEB7F9
:1027000069837A838B839C8309E210E089819A81B3
:10271000AB81BC81880F991FAA1FBB1F880F991F0F
:10272000AA1FBB1F880F991FAA1FBB1F880F991FC5
:10273000AA1FBB1F9C01AD0180E094E2A4EFB0E0B2
:10274000BC01CD010E94F421DA01C9018150F801D8
:10275000808300E410E089819A81AB81BC81880F7D
:10276000991FAA1FBB1F880F991FAA1FBB1F880F85
:10277000991FAA1FBB1F880F991FAA1FBB1F9C016F
:10278000AD0180E094E2A4EFB0E0BC01CD010E9475
:10279000F421DA01C9010197A109B109892F9A2F02
:1027A000AB2FBB27F80180830F900F900F900F90F5
:1027B000CF91DF911F910F910895DF93CF930F92E7
:1027C000CDB7DEB789830E94981C8981882F90E05D
:1027D0000097A9F4A3E5B0E0E3E5F0E080818F7B0A
:1027E0008C93A3E5B0E0E3E5F0E08081877F8C93F4
:1027F000A9E5B0E0E9E5F0E0808181608C930F907D
:10280000CF91DF910895DF93CF93CDB7DEB72A97AD
:102810000FB6F894DEBF0FBECDBF8E834F835887AF
:1028200069877A878E81882F90E0009709F073C0BE
:1028300080E48D838F819885A985BA8528EE33E061
:1028400040E050E0BC01CD010E94AE21DC01CB0193
:102850002D81222F30E040E050E0BC01CD010E94EC
:10286000F421DA01C90189839A83AB83BC8389810E
:102870009A81AB81BC81892F9A2FAB2FBB27809384
:10288000AC019093AD01A093AE01B093AF018981EB
:102890009A81AB81BC819C01AD0130704070507059
:1028A00080E091E0A0E0B0E0821B930BA40BB50B9D
:1028B0008093B2019093B301A093B401B093B5019A
:1028C00089819A81AB81BC819070A070B0700097B3
:1028D000A105B10501F18091B2019091B301A091E0
:1028E000B401B091B5019C0180E0B9010E945B1573
:1028F0008091AC019091AD01A091AE01B091AF017A
:102900000196A11DB11D8093AC019093AD01A093E0
:10291000AE01B093AF012A960FB6F894DEBF0FBE9A
:10292000CDBFCF91DF910895DF93CF9300D00F9269
:10293000CDB7DEB789838981282F30E03B832A8396
:102940008A819B81009731F02A813B8121303105BA
:10295000B9F02BC0A3E5B0E0E3E5F0E08081816051
:102960008C93A3E5B0E0E3E5F0E080818D7F8C936C
:10297000A3E5B0E0E3E5F0E0808184608C9315C0CE
:10298000AEE4B0E0EEE4F0E0808184608C93AEE4ED
:10299000B0E0EEE4F0E080818D7F8C93AEE4B0E0B7
:1029A000EEE4F0E080818E7F8C930F900F900F907B
:1029B000CF91DF910895DF93CF9300D00F92CDB7E1
:1029C000DEB789838981282F30E03B832A838A817F
:1029D0009B81009731F02A813B8121303105B9F08C
:1029E0002BC0A3E5B0E0E3E5F0E080818B7F8C9322
:1029F000A3E5B0E0E3E5F0E080818D7F8C93A3E573
:102A0000B0E0E3E5F0E080818E7F8C9315C0AEE40A
:102A1000B0E0EEE4F0E080818B7F8C93AEE4B0E038
:102A2000EEE4F0E080818D7F8C93AEE4B0E0EEE4E4
:102A3000F0E080818E7F8C930F900F900F90CF915C
:102A4000DF910895DF93CF9300D000D00F92CDB7E0
:102A5000DEB789837B836A838981282F30E03D83B9
:102A60002C838C819D818130910581F02C813D8169
:102A70002230310591F08C819D810097A1F48A81EB
:102A80009B819093AB018093AA010DC08A819B81A9
:102A90009093A9018093A80106C08A819B8190939D
:102AA000B1018093B0010F900F900F900F900F9095
:102AB000CF91DF910895DF93CF9300D00F92CDB7E0
:102AC000DEB789837B836A838981882F90E00097B2
:102AD00021F4E2E5F0E08A8180830F900F900F905F
:102AE000CF91DF910895DF93CF9300D00F92CDB7B0
:102AF000DEB789837B836A838981882F90E0009782
:102B000021F4ECE5F0E08A8180830F900F900F9024
:102B1000CF91DF910895DF93CF9300D00F92CDB77F
:102B2000DEB789838981282F30E03B832A838A811D
:102B30009B81009731F02A813B812130310519F1C9
:102B400051C083E061E041E00E94B41CA3E5B0E025
:102B5000E3E5F0E0808180648C93A3E5B0E0E3E5F9
:102B6000F0E08081877F8C93A3E5B0E0E3E5F0E0BF
:102B700080818F7E8C93A3E5B0E0E3E5F0E0808177
:102B800080628C932FC0AFE4B0E0EFE4F0E080818E
:102B90008E7F8C93AFE4B0E0EFE4F0E08081826060
:102BA0008C93AEE4B0E0EEE4F0E0808188608C933A
:102BB000AEE4B0E0EEE4F0E0808180618C9385E0EB
:102BC00063E041E00E94B41CAFE4B0E0EFE4F0E069
:102BD000808180688C93AFE4B0E0EFE4F0E0808126
:102BE0008F7B8C930F900F900F90CF91DF91089572
:102BF0000F931F93DF93CF9300D000D0CDB7DEB7F4
:102C000069837A838B839C8306E410E089819A81AF
:102C1000AB81BC812227382F492F5A2F80E094E2C4
:102C2000A4EFB0E0BC01CD010E94F421DA01C9019A
:102C3000F801918380830F900F900F900F90CF91A8
:102C4000DF911F910F910895DF93CF9300D00F92E2
:102C5000CDB7DEB789838981282F30E03B832A8373
:102C60008A819B818130910569F02A813B812230E4
:102C7000310561F08A819B81009759F480E00E94C0
:102C8000941407C081E00E94941403C082E00E9463
:102C900094140F900F900F90CF91DF910895DF93D0
:102CA000CF9300D00F92CDB7DEB789838981282FCB
:102CB00030E03B832A838A819B818130910569F0D2
:102CC0002A813B812230310561F08A819B81009706
:102CD00059F480E00E94DB1407C081E00E94DB14FD
:102CE00003C082E00E94DB140F900F900F90CF91F1
:102CF000DF9108950F931F93DF93CF9300D000D0FF
:102D0000CDB7DEB789836A838981282F30E03C8381
:102D10002B834B815C814115510531F08B819C8166
:102D200081309105F1F039C08A81482F50E0CA0105
:102D30009C01220F331FC9019695982F88279795DC
:102D40008795821B930B840F951F24E630E0B90111
:102D50000E94E121CB019C0180E0B9010E94731522
:102D60001CC00AE410E08A81282F30E0E6E4F0E09D
:102D7000808191810196FC012E9FC0012F9F900DB3
:102D80003E9F900D112424E630E0B9010E94CD2130
:102D9000CB010197F801918380830F900F900F90E2
:102DA0000F90CF91DF911F910F9108951F920F9275
:102DB0000FB60F9211242F933F934F935F936F930E
:102DC0007F938F939F93AF93BF93EF93FF93DF9383
:102DD000CF93CDB7DEB78091A2018F5F8093A20120
:102DE0008091A201282F30E040E050E08091AC01BA
:102DF0009091AD01A091AE01B091AF0128173907B4
:102E00004A075B07A1F4E091AA01F091AB01099593
:102E10008091B2019091B301A091B401B091B5013C
:102E20009C0180E0B9010E945B151092A201CF9134
:102E3000DF91FF91EF91BF91AF919F918F917F9122
:102E40006F915F914F913F912F910F900FBE0F9017
:102E50001F901895DF93CF9300D00F92CDB7DEB7B8
:102E600089838981282F30E03B832A838A819B8153
:102E70008130910589F02A813B8122303105A1F012
:102E80008A819B810097B9F4ABE5B0E0EBE5F0E017
:102E9000808180648C930FC0ABE5B0E0EBE5F0E09F
:102EA000808180688C9307C0ABE5B0E0EBE5F0E093
:102EB000808180628C930F900F900F90CF91DF9163
:102EC0000895DF93CF9300D00F92CDB7DEB78983FB
:102ED0008981282F30E03B832A838A819B8181303E
:102EE000910589F02A813B8122303105A1F08A8148
:102EF0009B810097B9F4ABE5B0E0EBE5F0E08081B1
:102F00008F7B8C930FC0ABE5B0E0EBE5F0E0808108
:102F10008F778C9307C0ABE5B0E0EBE5F0E0808104
:102F20008F7D8C930F900F900F90CF91DF9108952C
:102F30000F931F93DF93CF93CDB7DEB7C457D04025
:102F40000FB6F894DEBF0FBECDBFFE01EF58FF4FA6
:102F50008083FE01EE58FF4F6083FE01EF58FF4F64
:102F60008081282F30E0E5963FAF2EAFE597E596BC
:102F70008EAD9FADE5978130910509F48AC1E59644
:102F8000EEADFFADE597E230F10509F4D4C2E59668
:102F90002EAD3FADE5972115310509F0BDC480E0A8
:102FA0000E946117FE01E359FF4F80E090E0A0E826
:102FB000BFE380839183A283B3838E0107591F4FA0
:102FC000FE01E359FF4F608171818281938120E08E
:102FD00030E04AE755E40E949C02DC01CB01F80195
:102FE00080839183A283B383FE01E759FF4F608101
:102FF00071818281938120E030E040E85FE30E94AC
:10300000A204882344F4FE01E959FF4F81E090E0D7
:103010009183808364C0FE01E759FF4F6081718115
:103020008281938120E03FEF4FE757E40E94420402
:1030300018160CF043C0FE01E359FF4F6081718107
:103040008281938120E030E040E251E40E949C02C2
:10305000DC01CB018E0109591F4FBC01CD010E943B
:10306000C600DC01CB01F801918380831FC0FE0103
:10307000EB59FF4F80E991E091838083FE01EB598A
:10308000FF4F808191810197F1F7FE01EB59FF4FCE
:1030900091838083DE01A959BF4FFE01E959FF4F9B
:1030A00080819181019711969C938E93FE01E9593D
:1030B000FF4F808191810097D1F627C08E01095979
:1030C0001F4FFE01E759FF4F60817181828193811B
:1030D0000E94C600DC01CB01F80191838083DE01F0
:1030E000AD59BF4FFE01E959FF4F808191818D930A
:1030F0009C93FE01ED59FF4F808191810197F1F77B
:10310000FE01ED59FF4F91838083A5E5B0E0E5E531
:10311000F0E08081982F9C7FFE01EE58FF4F808168
:10312000892B8C93FE01E15AFF4F80E090E0A0E8EC
:10313000BFE380839183A283B3838E01055A1F4F1F
:10314000FE01E15AFF4F608171818281938120E00D
:1031500030E04AE755E40E949C02DC01CB01F80113
:1031600080839183A283B383FE01E55AFF4F608180
:1031700071818281938120E030E040E85FE30E942A
:10318000A204882344F4FE01E75AFF4F81E090E057
:103190009183808364C0FE01E55AFF4F6081718195
:1031A0008281938120E03FEF4FE757E40E94420481
:1031B00018160CF043C0FE01E15AFF4F6081718187
:1031C0008281938120E030E040E251E40E949C0241
:1031D000DC01CB018E01075A1F4FBC01CD010E94BB
:1031E000C600DC01CB01F801918380831FC0FE0182
:1031F000E95AFF4F80E991E091838083FE01E95A0B
:10320000FF4F808191810197F1F7FE01E95AFF4F4D
:1032100091838083DE01A75ABF4FFE01E75AFF4F1B
:1032200080819181019711969C938E93FE01E75ABC
:10323000FF4F808191810097D1F627C08E01075AF8
:103240001F4FFE01E55AFF4F60817181828193819A
:103250000E94C600DC01CB01F80191838083DE016E
:10326000AB5ABF4FFE01E75AFF4F808191818D938A
:103270009C93FE01EB5AFF4F808191810197F1F7FA
:10328000FE01EB5AFF4F9183808380E00E942A1752
:1032900043C381E00E946117FE01EF5AFF4F80E0B7
:1032A00090E0A0E8BFE380839183A283B3838E0183
:1032B000035B1F4FFE01EF5AFF4F608171818281D6
:1032C000938120E030E04AE755E40E949C02DC0153
:1032D000CB01F80180839183A283B383FE01E35B7A
:1032E000FF4F608171818281938120E030E040E86E
:1032F0005FE30E94A204882344F4FE01E55BFF4FD4
:1033000081E090E09183808364C0FE01E35BFF4F26
:10331000608171818281938120E03FEF4FE757E424
:103320000E94420418160CF043C0FE01EF5AFF4FF2
:10333000608171818281938120E030E040E251E43C
:103340000E949C02DC01CB018E01055B1F4FBC017A
:10335000CD010E94C600DC01CB01F801918380837E
:103360001FC0FE01E75BFF4F80E991E091838083FE
:10337000FE01E75BFF4F808191810197F1F7FE012C
:10338000E75BFF4F91838083DE01A55BBF4FFE01AA
:10339000E55BFF4F80819181019711969C938E93FD
:1033A000FE01E55BFF4F808191810097D1F627C038
:1033B0008E01055B1F4FFE01E35BFF4F6081718152
:1033C000828193810E94C600DC01CB01F8019183C8
:1033D0008083DE01A95BBF4FFE01E55BFF4F80816B
:1033E00091818D939C93FE01E95BFF4F80819181D8
:1033F0000197F1F7FE01E95BFF4F91838083A5E51B
:10340000B0E0E5E5F0E08081282F237FFE01EE5853
:10341000FF4F8081882F90E0880F991F880F991F98
:10342000822B8C93FE01ED5BFF4F80E090E0A0E8E3
:10343000BFE380839183A283B3838E01015C1F4F1E
:10344000FE01ED5BFF4F608171818281938120E0FD
:1034500030E04AE755E40E949C02DC01CB01F80110
:1034600080839183A283B383FE01FF966081718183
:103470008281938120E030E040E85FE30E94A20473
:1034800088232CF481E090E09EAF8DAF46C0FE0112
:10349000FF96608171818281938120E03FEF4FE749
:1034A00057E40E944204181664F5FE01ED5BFF4FDD
:1034B000608171818281938120E030E040E251E4BB
:1034C0000E949C02DC01CB01BC01CD010E94C60020
:1034D000DC01CB019EAF8DAF0FC080E991E09CAFC6
:1034E0008BAF8BAD9CAD0197F1F79CAF8BAF8DADE2
:1034F0009EAD01979EAF8DAF8DAD9EAD009769F7E4
:1035000016C0FE01FF9660817181828193810E94C5
:10351000C600DC01CB019EAF8DAF8DAD9EAD9AAFE5
:1035200089AF89AD9AAD0197F1F79AAF89AF81E084
:103530000E942A17F1C1FE01EE58FF4F80818330AF
:1035400009F0F2C082E00E94611780E090E0A0E8FC
:10355000BFE38DAB9EABAFABB8AF6DA97EA98FA912
:1035600098AD20E030E04AE755E40E949C02DC017F
:10357000CB0189AB9AABABABBCAB69A97AA98BA9E0
:103580009CA920E030E040E85FE30E94A204882389
:103590002CF481E090E098AB8FA73FC069A97AA98D
:1035A0008BA99CA920E03FEF4FE757E40E9442041B
:1035B00018164CF56DA97EA98FA998AD20E030E0D2
:1035C00040E251E40E949C02DC01CB01BC01CD0130
:1035D0000E94C600DC01CB0198AB8FA70FC080E929
:1035E00091E09EA78DA78DA59EA50197F1F79EA7B7
:1035F0008DA78FA598A9019798AB8FA78FA598A99C
:10360000009769F714C069A97AA98BA99CA90E949F
:10361000C600DC01CB0198AB8FA78FA598A99CA70A
:103620008BA78BA59CA50197F1F79CA78BA7A4E579
:10363000B0E0E4E5F0E0808180648C9380E090E08D
:10364000A0E8BFE38FA398A7A9A7BAA76FA178A501
:1036500089A59AA520E030E04AE755E40E949C0243
:10366000DC01CB018BA39CA3ADA3BEA36BA17CA16A
:103670008DA19EA120E030E040E85FE30E94A2041B
:1036800088232CF481E090E09AA389A33FC06BA12A
:103690007CA18DA19EA120E03FEF4FE757E40E945F
:1036A000420418164CF56FA178A589A59AA520E0CB
:1036B00030E040E251E40E949C02DC01CB01BC01FD
:1036C000CD010E94C600DC01CB019AA389A30FC0E3
:1036D00080E991E098A38F8F8F8D98A10197F1F7E2
:1036E00098A38F8F89A19AA101979AA389A389A1F1
:1036F0009AA1009769F714C06BA17CA18DA19EA12E
:103700000E94C600DC01CB019AA389A389A19AA1DA
:103710009E8F8D8F8D8D9E8D0197F1F79E8F8D8F52
:1037200082E00E942A17F8C0FE01EE58FF4F808108
:10373000823009F0F1C082E00E94611780E090E0E1
:10374000A0E8BFE3898F9A8FAB8FBC8F698D7A8D8C
:103750008B8D9C8D20E030E04AE755E40E949C026E
:10376000DC01CB018D8B9E8BAF8BB88F6D897E89F1
:103770008F89988D20E030E040E85FE30E94A2044A
:1037800088232CF481E090E09C8B8B8B3FC06D896B
:103790007E898F89988D20E03FEF4FE757E40E94A4
:1037A000420418164CF5698D7A8D8B8D9C8D20E026
:1037B00030E040E251E40E949C02DC01CB01BC01FC
:1037C000CD010E94C600DC01CB019C8B8B8B0FC00E
:1037D00080E991E09A8B898B89899A890197F1F721
:1037E0009A8B898B8B899C8901979C8B8B8B8B897E
:1037F0009C89009769F714C06D897E898F89988D9F
:103800000E94C600DC01CB019C8B8B8B8B899C8931
:10381000988B8F878F8598890197F1F7988B8F8781
:10382000A4E5B0E0E4E5F0E080818F7B8C9380E05C
:1038300090E0A0E8BFE38B879C87AD87BE876B8550
:103840007C858D859E8520E030E04AE755E40E9426
:103850009C02DC01CB018F839887A987BA876F818F
:10386000788589859A8520E030E040E85FE30E9412
:10387000A20488232CF481E090E09E838D833FC0D6
:103880006F81788589859A8520E03FEF4FE757E47F
:103890000E94420418164CF56B857C858D859E85AB
:1038A00020E030E040E251E40E949C02DC01CB01C8
:1038B000BC01CD010E94C600DC01CB019E838D833B
:1038C0000FC080E991E09C838B838B819C81019761
:1038D000F1F79C838B838D819E8101979E838D83DD
:1038E0008D819E81009769F714C06F8178858985E5
:1038F0009A850E94C600DC01CB019E838D838D8159
:103900009E819A83898389819A810197F1F79A83AD
:10391000898382E00E942A17CC58DF4F0FB6F894B3
:10392000DEBF0FBECDBFCF91DF911F910F910895E4
:10393000DF93CF93CDB7DEB7AFE5B0E0EFE5F0E0D2
:10394000808180688C93CF91DF910895DF93CF932E
:10395000CDB7DEB7AFE5B0E0EFE5F0E080818F777F
:103960008C93CF91DF910895DF93CF9300D000D057
:103970000F92CDB7DEB789836A834B838A81282F64
:1039800030E03D832C838C819D818130910509F449
:1039900043C02C813D81223031052CF48C819D81E6
:1039A000009771F0BCC02C813D812230310509F4B3
:1039B0005FC08C819D818330910509F485C0AFC0C3
:1039C0008B818823A9F4AAE3B0E0EAE3F0E08081E8
:1039D000482F8981282F30E081E090E0022E02C03C
:1039E000880F991F0A94E2F7809584238C9397C0DF
:1039F000AAE3B0E0EAE3F0E08081482F8981282F34
:103A000030E081E090E0022E02C0880F991F0A94F6
:103A1000E2F7842B8C9383C08B818823A9F4A7E3DE
:103A2000B0E0E7E3F0E08081482F8981282F30E083
:103A300081E090E0022E02C0880F991F0A94E2F7FD
:103A4000809584238C936BC0A7E3B0E0E7E3F0E0BC
:103A50008081482F8981282F30E081E090E0022E7C
:103A600002C0880F991F0A94E2F7842B8C9357C0E9
:103A70008B818823A9F4A4E3B0E0E4E3F0E0808143
:103A8000482F8981282F30E081E090E0022E02C08B
:103A9000880F991F0A94E2F7809584238C933FC086
:103AA000A4E3B0E0E4E3F0E08081482F8981282F8F
:103AB00030E081E090E0022E02C0880F991F0A9446
:103AC000E2F7842B8C932BC08B818823A9F4A1E38C
:103AD000B0E0E1E3F0E08081482F8981282F30E0D9
:103AE00081E090E0022E02C0880F991F0A94E2F74D
:103AF000809584238C9313C0A1E3B0E0E1E3F0E070
:103B00008081482F8981282F30E081E090E0022ECB
:103B100002C0880F991F0A94E2F7842B8C930F90B0
:103B20000F900F900F900F90CF91DF910895DF933A
:103B3000CF9300D000D00F92CDB7DEB789836A83D0
:103B40004B838A81282F30E03D832C838C819D819B
:103B50008130910509F443C02C813D81223031052B
:103B60002CF48C819D81009771F0BCC02C813D812B
:103B70002230310509F45FC08C819D81833091052D
:103B800009F485C0AFC08B818130A1F4ABE3B0E014
:103B9000EBE3F0E08081482F8981282F30E081E03D
:103BA00090E0022E02C0880F991F0A94E2F7842B3E
:103BB0008C9398C0ABE3B0E0EBE3F0E08081482F5A
:103BC0008981282F30E081E090E0022E02C0880F2A
:103BD000991F0A94E2F7809584238C9383C08B818C
:103BE0008130A1F4A8E3B0E0E8E3F0E08081482F61
:103BF0008981282F30E081E090E0022E02C0880FFA
:103C0000991F0A94E2F7842B8C936CC0A8E3B0E070
:103C1000E8E3F0E08081482F8981282F30E081E0BF
:103C200090E0022E02C0880F991F0A94E2F7809557
:103C300084238C9357C08B818130A1F4A5E3B0E03D
:103C4000E5E3F0E08081482F8981282F30E081E092
:103C500090E0022E02C0880F991F0A94E2F7842B8D
:103C60008C9340C0A5E3B0E0E5E3F0E08081482F0D
:103C70008981282F30E081E090E0022E02C0880F79
:103C8000991F0A94E2F7809584238C932BC08B8133
:103C90008130A1F4A2E3B0E0E2E3F0E08081482FBC
:103CA0008981282F30E081E090E0022E02C0880F49
:103CB000991F0A94E2F7842B8C9314C0A2E3B0E01E
:103CC000E2E3F0E08081482F8981282F30E081E015
:103CD00090E0022E02C0880F991F0A94E2F78095A7
:103CE00084238C930F900F900F900F900F90CF9193
:103CF000DF910895DF93CF9300D000D00F92CDB71E
:103D0000DEB789836A834B838B81282F30E03D8324
:103D10002C838C819D818130910501F12C813D8125
:103D2000223031052CF48C819D81009761F036C0E2
:103D30002C813D8122303105E1F08C819D818330E1
:103D4000910511F12BC0ABE3B0E0EBE3F0E0908123
:103D50008A8198238981892B8C9320C0A8E3B0E0C5
:103D6000E8E3F0E090818A8198238981892B8C9304
:103D700015C0A5E3B0E0E5E3F0E090818A819823E7
:103D80008981892B8C930AC0A2E3B0E0E2E3F0E0E2
:103D900090818A8198238981892B8C930F900F9031
:103DA0000F900F900F90CF91DF910895DF93CF93F5
:103DB00000D000D00F92CDB7DEB78A836B838B81A2
:103DC000282F30E03D832C834C815D8141305105AB
:103DD00079F18C819D818230910534F42C813D8173
:103DE0002115310569F06BC04C815D814230510570
:103DF000B9F18C819D818330910509F449C05FC080
:103E0000E9E3F0E08081282F30E08A81882F90E07C
:103E1000A90102C0559547958A95E2F7CA018170BC
:103E20009070882319F081E0898349C0198247C0C6
:103E3000E6E3F0E08081282F30E08A81882F90E04F
:103E4000A90102C0559547958A95E2F7CA0181708C
:103E50009070882319F081E0898331C019822FC0C6
:103E6000E3E3F0E08081282F30E08A81882F90E022
:103E7000A90102C0559547958A95E2F7CA0181705C
:103E80009070882319F081E0898319C0198217C0C6
:103E9000E0E3F0E08081282F30E08A81882F90E0F5
:103EA000A90102C0559547958A95E2F7CA0181702C
:103EB0009070882319F081E0898301C0198289817B
:103EC0000F900F900F900F900F90CF91DF9108956A
:103ED000DF93CF9300D000D0CDB7DEB789836A835C
:103EE0008A81282F30E03C832B838B819C81813019
:103EF000910549F12B813C81223031052CF48B81D5
:103F00009C81009761F05AC02B813C8122303105A1
:103F100071F18B819C8183309105E9F14FC0ABE356
:103F2000B0E0EBE3F0E08081482F8981282F30E07A
:103F300081E090E0022E02C0880F991F0A94E2F7F8
:103F400084278C933BC0A8E3B0E0E8E3F0E08081F5
:103F5000482F8981282F30E081E090E0022E02C0B6
:103F6000880F991F0A94E2F784278C9327C0A5E352
:103F7000B0E0E5E3F0E08081482F8981282F30E030
:103F800081E090E0022E02C0880F991F0A94E2F7A8
:103F900084278C9313C0A2E3B0E0E2E3F0E08081D9
:103FA000482F8981282F30E081E090E0022E02C066
:103FB000880F991F0A94E2F784278C930F900F9033
:103FC0000F900F90CF91DF910895DF93CF9300D0A2
:103FD00000D0CDB7DEB789836A838A81282F30E08D
:103FE0003C832B838B819C818130910549F12B810E
:103FF0003C81223031052CF48B819C81009761F04B
:104000005AC02B813C812230310571F18B819C811A
:1040100083309105E9F14FC0ABE3B0E0EBE3F0E0B2
:104020008081482F8981282F30E081E090E0022EA6
:1040300002C0880F991F0A94E2F7842B8C933BC02F
:10404000A8E3B0E0E8E3F0E08081482F8981282FE1
:1040500030E081E090E0022E02C0880F991F0A94A0
:10406000E2F7842B8C9327C0A5E3B0E0E5E3F0E012
:104070008081482F8981282F30E081E090E0022E56
:1040800002C0880F991F0A94E2F7842B8C9313C007
:10409000A2E3B0E0E2E3F0E08081482F8981282F9D
:1040A00030E081E090E0022E02C0880F991F0A9450
:1040B000E2F7842B8C930F900F900F900F90CF917D
:1040C000DF910895DF93CF930F92CDB7DEB7898349
:1040D000A6E2B0E0E6E2F0E0808180688C93A7E29F
:1040E000B0E0E7E2F0E08081282F2F738981882FEC
:1040F00090E0002496958795079496958795079468
:10410000982F802D822B8C93A6E2B0E0E6E2F0E0BF
:10411000808187608C930F90CF91DF910895DF931A
:10412000CF9300D00F92CDB7DEB78B83A7E2B0E07C
:10413000E7E2F0E08081982F907E8B81892B8C9331
:10414000A6E2B0E0E6E2F0E0808180648C93E6E2F3
:10415000F0E0808182958F70882F90E08170907060
:104160000097A9F3A6E2B0E0E6E2F0E0808180618A
:104170008C93E4E2F0E08081282F30E0E5E2F0E08B
:104180008081882F90E0982F8827822B932B9A8309
:10419000898389819A810F900F900F90CF91DF9141
:1041A0000895DF93CF93CDB7DEB727970FB6F89476
:1041B000DEBF0FBECDBF8F83A7E2B0E0E7E2F0E045
:1041C0008081982F907E8F81892B8C93A6E2B0E01E
:1041D000E6E2F0E0808180648C93E6E2F0E08081AA
:1041E00082958F70882F90E0817090700097A9F36E
:1041F000A6E2B0E0E6E2F0E0808180618C93E4E248
:10420000F0E08081282F30E0E5E2F0E08081882F27
:1042100090E0982F8827822B932B9E838D838D810E
:104220009E81CC01A0E0B0E0BC01CD010E9426053A
:10423000DC01CB01BC01CD012AE939E949E950E4AF
:104240000E949C02DC01CB0189839A83AB83BC83EF
:1042500089819A81AB81BC81BC01CD0127960FB6C3
:10426000F894DEBF0FBECDBFCF91DF910895AF921E
:10427000BF92CF92DF92EF92FF920F931F93DF9343
:10428000CF93CDB7DEB760970FB6F894DEBF0FBE01
:10429000CDBF69837A838B839C832D833E834F8339
:1042A0005887E986FA860B871C87AD86BE86CF863F
:1042B000D88A69817A818B819C812D813E814F8151
:1042C00058850E943E02DC01CB017C018D016D8D81
:1042D0007E8D8F8D98A12D853E854F8558890E94B2
:1042E0003E02DC01CB019C01AD01C801B7010E9477
:1042F0009C02DC01CB017C018D0169857A858B856F
:104300009C852D813E814F8158850E943E02DC01B3
:10431000CB019C01AD01C801B7010E949603DC01ED
:10432000CB01BC01CD012D853E854F8558890E946A
:104330006F02DC01CB01BC01CD0160960FB6F89491
:10434000DEBF0FBECDBFCF91DF911F910F91FF90C8
:10435000EF90DF90CF90BF90AF900895629FD00113
:10436000739FF001829FE00DF11D649FE00DF11D30
:10437000929FF00D839FF00D749FF00D659FF00DDF
:104380009927729FB00DE11DF91F639FB00DE11DCC
:10439000F91FBD01CF0111240895AA1BBB1B51E1D8
:1043A00007C0AA1FBB1FA617B70710F0A61BB70BA5
:1043B000881F991F5A95A9F780959095BC01CD014A
:1043C000089597FB092E07260AD077FD04D0E5DF74
:1043D00006D000201AF4709561957F4F0895F6F786
:1043E000909581959F4F0895A1E21A2EAA1BBB1BA1
:1043F000FD010DC0AA1FBB1FEE1FFF1FA217B307B1
:10440000E407F50720F0A21BB30BE40BF50B661FC6
:10441000771F881F991F1A9469F76095709580958A
:1044200090959B01AC01BD01CF0108952F923F9261
:104430004F925F926F927F928F929F92AF92BF92B4
:10444000CF92DF92EF92FF920F931F93CF93DF9360
:10445000CDB7DEB7CA1BDB0B0FB6F894DEBF0FBEBD
:10446000CDBF09942A88398848885F846E847D840A
:104470008C849B84AA84B984C884DF80EE80FD800C
:104480000C811B81AA81B981CE0FD11D0FB6F89482
:10449000DEBF0FBECDBFED010895EF92FF920F93E7
:1044A0001F93F22FF02E47FD02C0E4E001C0E4E1CB
:1044B000242F332727FD309537FF03C030952195F2
:1044C0003F4F4F2D512F0F2FEE2E0E946F248F2D17
:1044D000912F1F910F91FF90EF900895AEE0B0E003
:1044E000E4E7F2E20C9424220D891E8986E08C8395
:1044F0001A8309838FEF9FE79E838D839E01275E3A
:104500003F4FCE0101966F89788DA9010E949222BA
:104510002F813885020F131FF80110822E96E4E0D8
:104520000C944022ABE0B0E0E8E9F2E20C941622F1
:104530003C012B015A01FC0117821682838181FD07
:1045400003C06FEF7FEFC6C19AE0892E1E01089469
:10455000211C311CF3012381F20123FD859123FFEE
:1045600081912F01882309F4B2C1853239F423FDEA
:10457000859123FF81912F01853229F490E0B301C9
:104580000E94BF26E7CF982FFF24EE249924FFE155
:10459000FF15D0F09B3269F09C3228F4903259F02C
:1045A000933291F40EC09D3249F0903369F441E0AA
:1045B00024C052E0F52A84E0F82A28C098E0F92ABD
:1045C00025C0E0E1FE2A22C0F7FC29C0892F8053D4
:1045D0008A3070F4F6FE05C0989C902C1124980E39
:1045E00015C0E89CE02C1124E80EF0E2FF2A0EC072
:1045F0009E3229F4F6FC6BC140E4F42A07C09C36D5
:1046000019F450E8F52A02C0983649F4F20123FD66
:10461000959123FF91912F01992309F0B8CF892F0C
:104620008554833018F08052833038F444E050E0F1
:10463000A40EB51E5FE359830FC0933631F0933754
:1046400079F0933509F056C020C0F5018081898347
:1046500042E050E0A40EB51E610101E010E012C07E
:10466000F501C080D180F6FC03C06FEF7FEF02C080
:10467000692D70E042E050E0A40EB51EC6010E9414
:10468000B4268C015FE7F52214C0F501C080D1800B
:10469000F6FC03C06FEF7FEF02C0692D70E042E0CF
:1046A00050E0A40EB51EC6010E94A9268C0150E858
:1046B000F52AF3FE07C01AC080E290E0B3010E9421
:1046C000BF26EA948E2D90E008171907A8F30EC0B4
:1046D000F601F7FC8591F7FE81916F0190E0B3013F
:1046E0000E94BF26E110EA94015010400115110507
:1046F00079F7EAC0943611F0993669F5F7FE08C0EB
:10470000F501208131814281538184E090E00AC02B
:10471000F501808191819C01442737FD4095542FFC
:1047200082E090E0A80EB91E9FE6F92257FF09C06B
:1047300050954095309521953F4F4F4F5F4FE0E8A2
:10474000FE2ACA01B901A1012AE030E00E94EB264D
:10475000D82ED21840C0953729F41F2D1F7E2AE08D
:1047600030E01DC01F2D197F9F3661F0903720F477
:10477000983509F0ACC00FC0903739F0983709F080
:10478000A6C004C028E030E00AC0106114FD146027
:1047900020E130E004C014FD166020E132E017FF94
:1047A00008C0F501608171818281938144E050E00D
:1047B00008C0F50180819181BC0180E090E042E079
:1047C00050E0A40EB51EA1010E94EB26D82ED218EF
:1047D0008FE7F82EF122F6FE0BC05EEFF522D9141A
:1047E00038F4F4FE07C0F2FC05C08FEEF82202C0D8
:1047F0001D2D01C0192DF4FE0DC0FE01ED0DF11DA2
:104800008081803319F499EEF92208C01F5FF2FE0F
:1048100005C003C08F2D867809F01F5F0F2DF3FCB4
:1048200014C0F0FE0FC01E1510F09D2C0BC09D2C67
:104830009E0C911A1E2D06C080E290E0B3010E94EA
:10484000BF261F5F1E15C0F304C01E1510F4E11A29
:1048500001C0EE2404FF0FC080E390E0B3010E948A
:10486000BF2602FF1DC001FD03C088E790E00EC017
:1048700088E590E00BC0802F867891F001FF02C0A0
:104880008BE201C080E2F7FC8DE290E0B3010E9470
:10489000BF2606C080E390E0B3010E94BF269A9431
:1048A000D914C0F3DA94F101ED0DF11D808190E08F
:1048B000B3010E94BF26DD20A9F706C080E290E088
:1048C000B3010E94BF26EA94EE20C1F743CEF30164
:1048D00066817781CB012B96E2E10C943222A9E02C
:1048E000B0E0E5E7F4E20C941A226A01122FA02E40
:1048F000BE2C2BE3201718F42CE3922E02C0902E2E
:104900009394AE014F5F5F4F27E0092D0E94D125A0
:10491000BC018981E82EFF24C7018970907001973E
:1049200011F4ADE209C0B1FE02C0ABE205C0B0FCBB
:1049300002C0A0E001C0A0E2E3FE3BC0AA2311F444
:1049400023E001C024E0211710F020E002C0121B78
:10495000212FEB2CB4FE02C0322F0AC0F601322FF9
:1049600080E202C0819331503323E1F7C20ED11CA3
:10497000AA2319F0F601A1936F01F6013196E2FE28
:1049800005C09EE4D6019C9381E404C09EE6D60156
:104990009C9381E611968C9391833296DF01832F4D
:1049A00090E202C09D9381508823E1F7E30FF11D4F
:1049B00040C0E2FE42C0AA2311F423E001C024E07B
:1049C000211710F020E002C0121B212FEB2CB4FEA7
:1049D00002C0922F0AC0F601922F80E202C081939A
:1049E00091509923E1F7C20ED11CAA2319F0F601C8
:1049F000A1936F01F6013196E2FE08C089E4D60169
:104A00008C938EE411968C9386E407C089E6D601D8
:104A10008C938EE611968C9386E681833296DF0125
:104A2000892F20E202C02D9381508823E1F7E90FFE
:104A3000F11D10822EEF3FEFAFC0161617061CF0C7
:104A400041E050E003C0AB014F5F5F4FAA2019F473
:104A500080E090E003C08A2D90E0019620E030E0F5
:104A6000AA2311F021E030E0240F351F280F391F51
:104A7000812F90E02817390714F020E002C0121BA4
:104A8000212F4B2D50E0CA0180719070B4FC0DC0F5
:104A9000B3FC0BC0F601322F40E202C0419331500B
:104AA0003323E1F7C20ED11C01C0322FAA2319F023
:104AB000F601A1936F01892B11F0132F0AC0F601A3
:104AC000132F80E302C0819311501123E1F7C30E2D
:104AD000D11C092D060FBA8090E1892E912C8E20D1
:104AE0009F20E4FE04C0F1E3BF1609F40150101644
:104AF00014F001E003C0093008F008E09B0177FFE3
:104B000002C020E030E0CB010196821B930BFE0136
:104B10003196E80FF91F8EE2F82E3B01601A7108FA
:104B20008A2D90E044275527481B590B8FEF2F3FC4
:104B3000380719F4D601FD926D01621773072CF046
:104B40006216730614F4808101C080E32150304066
:104B500031962417350724F0D6018D936D01E6CFE9
:104B60002617370749F4B5E3BB1528F0BB1621F427
:104B70008114910409F481E3F6018193D601812F18
:104B800090E202C09C93815011968823D9F7E10FDF
:104B9000F11D108220E030E0C9012996EEE00C946E
:104BA0003622283008F027E03327DA01990F311D2B
:104BB00087FD916000966105710539F432602E5FC2
:104BC0003D9330E32A95E1F708959F3F30F0803818
:104BD0007105610509F03C5F3C5F3D93913008F041
:104BE0008068911DDF93CF931F930F93FF92EF92F5
:104BF000192F987F9695E92F96959695E90FFF279F
:104C0000E255FF4F99273327EE24FF24A701E70140
:104C100005900894079428F4360FE71EF81E491FE4
:104C2000511D660F771F881F991F0694A1F70590E5
:104C3000079428F4E70EF81E491F561FC11D770F71
:104C4000881F991F661F0694A1F70590079428F402
:104C5000F80E491F561FC71FD11D880F991F661FC9
:104C6000771F0694A1F70590079420F4490F561F6B
:104C7000C71FD81F990F661F771F881F0694A9F7B3
:104C800084911095177041F0D695C7955795479523
:104C9000F794E7941A95C1F7E4E5F0E0689415906D
:104CA000159135916591959105907FE27395E11885
:104CB000F10A430B560BC90BD009C0F7E10CF11EEA
:104CC000431F561FC91FD01D7EF4703311F48A95FF
:104CD000E6CFE894015030F0080F0AF400270217DD
:104CE00008F4202F2395022F7A3328F079E37D935F
:104CF0002A95E9F710C07D932A9589F60694979531
:104D00006795379517951794E118F10A430B560BE1
:104D1000C90BD00998F023957E9173957A3308F0EA
:104D200070E37C932013B8F77E9170617D9330F02F
:104D3000839571E37D9370E32A95E1F71124EF9059
:104D4000FF900F911F91CF91DF91992787FD90954B
:104D50000895FC010590615070400110D8F78095CE
:104D600090958E0F9F1F0895FC0161507040019037
:104D70000110D8F7809590958E0F9F1F08950F937F
:104D80001F93CF93DF938C01EB018B8181FF1BC0BD
:104D900082FF0DC02E813F818C819D8128173907AC
:104DA00064F4E881F9810193F983E88306C0E8851A
:104DB000F985802F0995892B31F48E819F81019689
:104DC0009F838E8302C00FEF1FEFC801DF91CF9149
:104DD0001F910F910895FA01AA27283051F120312F
:104DE00081F1E8946F936E7F6E5F7F4F8F4F9F4F7F
:104DF000AF4FB1E03ED0B4E03CD0670F781F891FC1
:104E00009A1FA11D680F791F8A1F911DA11D6A0F8E
:104E1000711D811D911DA11D20D009F468943F9141
:104E20002AE0269F11243019305D3193DEF6CF0140
:104E30000895462F4770405D4193B3E00FD0C9F706
:104E4000F6CF462F4F70405D4A3318F0495D31FD73
:104E50004052419302D0A9F7EACFB4E0A6959795C6
:104E6000879577956795BA95C9F70097610571059C
:104E700008959B01AC010A2E0694579547953795E6
:104E80002795BA95C9F7620F731F841F951FA01D40
:064E90000895F894FFCF25
:104E9600554152542052583A2020202020202020CC
:104EA60020005541525420496E697469616C697AD3
:104EB60065642E0D0A004C434420496E697469618D
:104EC6006C697A65642E002564000000000000000D
:104ED60000000001020203030303040404040404A3
:104EE600040405050505050505050505050505056E
:104EF600050506060606060606060606060606064E
:104F0600060606060606060606060606060606063B
:104F1600060607070707070707070707070707071D
:104F2600070707070707070707070707070707070B
:104F360007070707070707070707070707070707FB
:104F460007070707070707070707070707070707EB
:104F560007070808080808080808080808080808CD
:104F660008080808080808080808080808080808BB
:104F760008080808080808080808080808080808AB
:104F8600080808080808080808080808080808089B
:104F9600080808080808080808080808080808088B
:104FA600080808080808080808080808080808087B
:104FB600080808080808080808080808080808086B
:104FC600080808080808080808080808080808085B
:024FD6000808C9
:00000001FF
