:100000000C942A000C943F000C943F000C943F0089
:100010000C943F000C943F000C943F000C943F0064
:100020000C943F000C943F000C943F000C943F0054
:100030000C943F000C943F000C943F000C943F0044
:100040000C943F000C943F000C943F000C943F0034
:100050000C943F0011241FBECFE5D8E0DEBFCDBF1A
:1000600011E0A0E6B0E0EEE3FAE702C005900D92E1
:10007000A63AB107D9F70E94C70D0C941D3D0C9408
:100080000000EF92FF920F931F937B018C0120E001
:1000900030E040E05FE40E94ED0388238CF0C8016B
:1000A000B70120E030E040E05FE40E94B9010E9427
:1000B0004D049B01AC01205030404040504806C0E8
:1000C000C801B7010E944D049B01AC01B901CA01EE
:1000D0001F910F91FF90EF900895A0E0B0E0E3E74B
:1000E000F0E00C94453ADC012B01FA019C9192302E
:1000F00008F439C1EB018881823008F433C19430AF
:1001000069F4843009F02FC111969C91119789816F
:10011000981709F428C1A5E8B0E025C1843009F496
:1001200021C18230A9F4923009F01DC19A01AD01BC
:1001300088E0EA010990AE01E90109929E0181502F
:10014000C1F7E201898111969C918923818308C1BD
:10015000923009F407C112962D903C901397EB0151
:100160008A819B811496AD90BD90CD90DC901797BD
:10017000EC80FD800E811F819101281B390BB90194
:1001800037FF04C066277727621B730B6032710547
:100190000CF061C0121613066CF537014801062EEB
:1001A00004C096948794779467940A94D2F721E0D8
:1001B00030E040E050E004C0220F331F441F551FC1
:1001C0006A95D2F721503040404050402E213F21C7
:1001D00040235123211531054105510521F021E02E
:1001E00030E040E050E079018A01E628F72808294C
:1001F00019293CC0232BD1F1260E371E35014601AB
:10020000062E04C096948794779467940A94D2F744
:1002100021E030E040E050E004C0220F331F441FD3
:10022000551F6A95D2F721503040404050402A2156
:100230003B214C215D21211531054105510521F05E
:1002400021E030E040E050E059016A01A628B728DB
:10025000C828D9280BC0821593052CF01C01AA24AC
:10026000BB24650103C0EE24FF24870111969C91F5
:10027000D20111968C91981709F445C0992339F051
:10028000A80197012A193B094C095D0906C0A6017E
:1002900095012E193F09400B510B57FD08C01182E3
:1002A0003382228224833583468357831DC081E0B5
:1002B00081833382228288279927DC01821B930B5A
:1002C000A40BB50B84839583A683B7830DC0220F3F
:1002D000331F441F551F24833583468357838281F0
:1002E000938101979383828324813581468157814D
:1002F000DA01C9010197A109B1098F5F9F4FAF4F83
:10030000BF4328F30BC0918333822282EA0CFB1C8B
:100310000C1D1D1DE482F5820683178383E0808314
:10032000248135814681578157FF1AC0C901AA2708
:1003300097FDA095BA2F81709070A070B0705695FF
:10034000479537952795822B932BA42BB52B848328
:100350009583A683B7838281938101969383828359
:10036000DF0101C0D201CD01CDB7DEB7E2E10C94CF
:10037000613AA0E2B0E0EFEBF1E00C94513A69830E
:100380007A838B839C832D833E834F835887E9E058
:10039000EE2EF12CEC0EFD1ECE010196B7010E944F
:1003A0003E068E010F5E1F4FCE010596B8010E94DA
:1003B0003E068A8991E089278A8BC701B801AE0180
:1003C000475E5F4F0E946D000E946905A096E6E0BF
:1003D0000C946D3AA0E2B0E0E0EFF1E00C94513AF9
:1003E00069837A838B839C832D833E834F835887D5
:1003F000F9E0EF2EF12CEC0EFD1ECE010196B701B7
:100400000E943E068E010F5E1F4FCE010596B80179
:100410000E943E06C701B801AE01475E5F4F0E94D1
:100420006D000E946905A096E6E00C946D3AA0E28A
:10043000B0E0EDE1F2E00C94453A69837A838B8376
:100440009C832D833E834F835887CE010196BE0146
:10045000675F7F4F0E943E06CE010596BE016F5E2C
:100460007F4F0E943E069985923088F089898230BC
:10047000C8F0943019F4823051F404C0843029F467
:10048000923081F485E890E0C6C0923049F420E0D3
:100490009A858A89981321E02A87CE010996BBC0E4
:1004A000823049F420E09A858A89981321E02A8BCA
:1004B000CE014196B0C02D843E844F8458886D880B
:1004C0007E888F88988CEE24FF248701AA24BB2481
:1004D000650140E050E060E070E0E0E0F0E0C10184
:1004E00081709070892BE9F0E60CF71C081D191D2E
:1004F0009A01AB012A0D3B1D4C1D5D1D80E090E073
:10050000A0E0B0E0E614F7040805190520F481E046
:1005100090E0A0E0B0E0BA01A901480F591F6A1F9E
:100520007B1FAA0CBB1CCC1CDD1C97FE08C081E005
:1005300090E0A0E0B0E0A82AB92ACA2ADB2A3196C6
:10054000E032F10549F0660C771C881C991C569422
:10055000479437942794C3CFFA85EA892B893C893D
:100560008B859C85280F391F2E5F3F4F17C0CA010E
:1005700081709070892B61F016950795F794E79438
:1005800080E090E0A0E0B0E8E82AF92A0A2B1B2BD3
:1005900076956795579547952F5F3F4F77FDE7CF46
:1005A0000CC0440F551F661F771F17FD4160EE0CEE
:1005B000FF1C001F111F21503040403090E05907B0
:1005C00090E0690790E4790760F32B8F3C8FDB01A3
:1005D000CA018F779070A070B07080349105A1052A
:1005E000B10561F447FD0AC0E114F10401051105EC
:1005F00029F0405C5F4F6F4F7F4F40781A8EFE1797
:1006000011F081E08A8F4D8F5E8F6F8F78A383E02A
:10061000898FCE0149960E946905A096E2E10C946B
:10062000613AA8E1B0E0E7E1F3E00C944D3A698368
:100630007A838B839C832D833E834F835887B9E0D5
:10064000EB2EF12CEC0EFD1ECE010196B7010E949F
:100650003E068E010F5E1F4FCE010596B8010E9427
:100660003E062985223008F47EC03989323010F4E4
:10067000B8017CC08A859A8989278A87243011F03D
:10068000223031F4231709F06EC065E870E06EC0C7
:10069000343039F41D861E861F86188A1C861B86F8
:1006A00004C0323021F484E08987B7015FC02B8514
:1006B0003C858B899C89281B390B3C872B87ED84D3
:1006C000FE840F851889AD88BE88CF88D88CEA143F
:1006D000FB040C051D0540F4EE0CFF1C001F111F50
:1006E000215030403C872B8720E030E040E050E054
:1006F00080E090E0A0E0B0E460E070E0EA14FB0489
:100700000C051D0540F0282B392B4A2B5B2BEA18D2
:10071000FB080C091D09B695A79597958795EE0CD2
:10072000FF1C001F111F6F5F7F4F6F31710531F785
:10073000DA01C9018F779070A070B0708034910594
:10074000A105B10561F427FD0AC0E114F10401051A
:10075000110529F0205C3F4F4F4F5F4F20782D87C8
:100760003E874F87588BBE01675F7F4FCB010E944A
:1007700069056896EAE00C94693AA8E1B0E0E3EC18
:10078000F3E00C94513A69837A838B839C832D83A5
:100790003E834F83588789E0E82EF12CEC0EFD1E36
:1007A000CE010196B7010E943E068E010F5E1F4FDB
:1007B000CE010596B8010E943E068985823040F040
:1007C0008989823028F0C701B8010E94B60601C0AD
:1007D0008FEF6896E6E00C946D3AA8E1B0E0E3EFA5
:1007E000F3E00C94513A69837A838B839C832D8345
:1007F0003E834F83588789E0E82EF12CEC0EFD1ED6
:10080000CE010196B7010E943E068E010F5E1F4F7A
:10081000CE010596B8010E943E068985823040F0DF
:100820008989823028F0C701B8010E94B60601C04C
:100830008FEF6896E6E00C946D3AA8E1B0E0E3E251
:10084000F4E00C94513A69837A838B839C832D83E3
:100850003E834F83588789E0E82EF12CEC0EFD1E75
:10086000CE010196B7010E943E068E010F5E1F4F1A
:10087000CE010596B8010E943E068985823040F07F
:100880008989823028F0C701B8010E94B60601C0EC
:1008900081E06896E6E00C946D3AACE0B0E0E3E508
:1008A000F4E00C94553A69837A838B839C83CE0160
:1008B0000196BE016B5F7F4F0E943E068D818230A4
:1008C00061F1823050F1843021F48E81882351F11E
:1008D0002EC02F81388537FD20C06E812F31310524
:1008E0001CF06623F9F023C08EE190E0821B930B8D
:1008F00029853A854B855C8504C056954795379583
:1009000027958A95D2F76623B1F05095409530959A
:1009100021953F4F4F4F5F4F0EC020E030E040E049
:1009200050E009C02FEF3FEF4FEF5FE704C020E03A
:1009300030E040E050E8B901CA012C96E2E00C94A6
:10094000713AA8E0B0E0E7EAF4E00C944D3A7B019C
:100950008C01611571058105910519F482E0898387
:1009600060C083E089838EE1C82ED12CDC82CB82EB
:10097000ED82FE820F831887C801B7010E941A0515
:10098000FC013197F7FF3BC0222733272E1B3F0B7B
:1009900057016801022E04C0D694C794B794A79457
:1009A0000A94D2F740E050E060E070E081E090E02F
:1009B000A0E0B0E004C0880F991FAA1FBB1F2A95B2
:1009C000D2F70197A109B1098E219F21A023B1235C
:1009D0000097A105B10521F041E050E060E070E032
:1009E0004A295B296C297D294D835E836F83788733
:1009F0008EE190E08E1B9F0B9C838B8312C03097FF
:100A000081F00E2E04C0EE0CFF1C001F111F0A9473
:100A1000D2F7ED82FE820F831887CE1ADF0ADC82BE
:100A2000CB821A82CE0101960E9469052896EAE0DF
:100A30000C94693AEF92FF920F931F937B018C0104
:100A400080E0E81680E0F80681E0080780E01807FB
:100A500088F48FEFE816F1040105110531F028F054
:100A600088E090E0A0E0B0E017C080E090E0A0E077
:100A7000B0E012C080E0E81680E0F80680E00807E9
:100A800081E0180728F088E190E0A0E0B0E004C021
:100A900080E190E0A0E0B0E020E230E040E050E013
:100AA000281B390B4A0B5B0B04C016950795F7946E
:100AB000E7948A95D2F7F701E357FF4F8081281B0F
:100AC000310941095109C9011F910F91FF90EF9020
:100AD0000895DF92EF92FF920F931F93FC01E48041
:100AE000F58006811781D1808081823048F480E0D2
:100AF00090E0A0E1B0E0E82AF92A0A2B1B2BA5C060
:100B0000843009F49FC0823021F4EE24FF24870151
:100B100005C0E114F1040105110519F4E0E0F0E06D
:100B200096C0628173819FEF623879070CF05BC0D9
:100B300022E83FEF261B370B2A3131052CF020E04D
:100B400030E040E050E02AC0B801A701022E04C006
:100B500076956795579547950A94D2F781E090E08E
:100B6000A0E0B0E004C0880F991FAA1FBB1F2A9500
:100B7000D2F70197A109B1098E219F21A023B123AA
:100B80000097A105B10521F081E090E0A0E0B0E080
:100B90009A01AB01282B392B4A2B5B2BDA01C901B7
:100BA0008F779070A070B07080349105A105B10569
:100BB00039F427FF09C0205C3F4F4F4F5F4F04C0FF
:100BC000215C3F4F4F4F5F4FE0E0F0E02030A0E06E
:100BD0003A07A0E04A07A0E45A0710F0E1E0F0E08D
:100BE00079018A0127C06038710564F5FB01E1587D
:100BF000FF4FD801C7018F779070A070B07080341C
:100C00009105A105B10539F4E7FE0DC080E490E03F
:100C1000A0E0B0E004C08FE390E0A0E0B0E0E80E18
:100C2000F91E0A1F1B1F17FF05C016950795F7949D
:100C3000E794319687E016950795F794E7948A959F
:100C4000D1F705C0EE24FF248701EFEFF0E06E2F0F
:100C5000679566276795902F9F77D794DD24D79463
:100C60008E2F8695492F462B582F5D29B701CA0133
:100C70001F910F91FF90EF90DF900895FC01DB0131
:100C8000408151812281622F6F7770E0221F2227DD
:100C9000221F9381892F880F822B282F30E0991FE4
:100CA0009927991F11969C93119721153105A9F544
:100CB000411551056105710511F482E037C082E8E4
:100CC0009FEF13969C938E9312979A01AB0167E066
:100CD000220F331F441F551F6A95D1F783E08C9371
:100CE0000DC0220F331F441F551F12968D919C91EA
:100CF0001397019713969C938E931297203080E060
:100D0000380780E0480780E4580758F314962D937D
:100D10003D934D935C93179708952F3F310579F4D8
:100D2000411551056105710519F484E08C9308950E
:100D300064FF03C081E08C9312C01C9210C02F5737
:100D4000304013963C932E93129783E08C9387E068
:100D5000440F551F661F771F8A95D1F7706414964C
:100D60004D935D936D937C93179708951F93DC01CA
:100D7000FB019C91923008F447C08081823008F4D6
:100D800043C0943051F411961C91843099F58181BF
:100D9000682F70E0611B71093FC0843021F09230F0
:100DA00031F48230B9F18181882389F12DC0119607
:100DB0001C9111978230F1F081811817D9F41296A5
:100DC0002D913C911397828193818217930794F020
:100DD00028173907BCF014968D919D910D90BC9108
:100DE000A02D2481358146815781281739074A076C
:100DF0005B0718F4112341F00AC082179307A40778
:100E0000B50740F4112319F061E070E005C06FEF01
:100E10007FEF02C060E070E0CB011F9108950F9357
:100E20001F93DF93CF93CDB7DEB7CE57D0400FB629
:100E3000F894DEBF0FBECDBF81E00E946F2A80E034
:100E400060E00E94812B80E690E00E94A82BFE01CA
:100E5000E558FF4F80E090E0AAE7B5E480839183F6
:100E6000A283B3838E0109581F4FFE01E558FF4F3F
:100E7000608171818281938120E030E04AE755E40E
:100E80000E941702DC01CB01F80180839183A283C9
:100E9000B383FE01E958FF4F6081718182819381A4
:100EA00020E030E040E85FE30E941D04882344F422
:100EB000FE01EB58FF4F81E090E09183808364C096
:100EC000FE01E958FF4F608171818281938120E0AA
:100ED0003FEF4FE757E40E94BD0318160CF043C0E4
:100EE000FE01E558FF4F608171818281938120E08E
:100EF00030E040E251E40E941702DC01CB018E0198
:100F00000B581F4FBC01CD010E944100DC01CB01F9
:100F1000F801918380831FC0FE01ED58FF4F80E9E7
:100F200091E091838083FE01ED58FF4F8081918194
:100F30000197F1F7FE01ED58FF4F91838083DE01A9
:100F4000AB58BF4FFE01EB58FF4F80819181019755
:100F500011969C938E93FE01EB58FF4F80819181F7
:100F60000097D1F627C08E010B581F4FFE01E9589C
:100F7000FF4F60817181828193810E944100DC0179
:100F8000CB01F80191838083DE01AF58BF4FFE0192
:100F9000EB58FF4F808191818D939C93FE01EF5818
:100FA000FF4F808191810197F1F7FE01EF58FF4FCC
:100FB0009183808381E00E946F2A80E060E00E943C
:100FC000812B86E690E00E94A82BFE01E359FF4F9B
:100FD00080E090E0A8ECB3E480839183A283B383A4
:100FE0008E0107591F4FFE01E359FF4F6081718148
:100FF0008281938120E030E04AE755E40E941702A5
:10100000DC01CB01F80180839183A283B383FE01CD
:10101000E759FF4F608171818281938120E030E048
:1010200040E85FE30E941D04882344F4FE01E9596F
:10103000FF4F81E090E09183808364C0FE01E75917
:10104000FF4F608171818281938120E03FEF4FE704
:1010500057E40E94BD0318160CF043C0FE01E3598B
:10106000FF4F608171818281938120E030E040E216
:1010700051E40E941702DC01CB018E0109591F4F78
:10108000BC01CD010E944100DC01CB01F80191833C
:1010900080831FC0FE01EB59FF4F80E991E09183EF
:1010A0008083FE01EB59FF4F808191810197F1F719
:1010B000FE01EB59FF4F91838083DE01A959BF4F99
:1010C000FE01E959FF4F80819181019711969C9310
:1010D0008E93FE01E959FF4F808191810097D1F6EF
:1010E00027C08E0109591F4FFE01E759FF4F60814C
:1010F0007181828193810E944100DC01CB01F80162
:1011000091838083DE01AD59BF4FFE01E959FF4F46
:10111000808191818D939C93FE01ED59FF4F8081D9
:1011200091810197F1F7FE01ED59FF4F9183808383
:1011300080E065E00E94812B8CE690E00E94A82B65
:10114000FE01E15AFF4F80E090E0A8ECB3E4808319
:101150009183A283B3838E01055A1F4FFE01E15A8A
:10116000FF4F608171818281938120E030E04AE706
:1011700055E40E941702DC01CB01F80180839183C2
:10118000A283B383FE01E55AFF4F608171818281A2
:10119000938120E030E040E85FE30E941D04882353
:1011A00044F4FE01E75AFF4F81E090E09183808391
:1011B00064C0FE01E55AFF4F608171818281938195
:1011C00020E03FEF4FE757E40E94BD0318160CF0F4
:1011D00043C0FE01E15AFF4F60817181828193819A
:1011E00020E030E040E251E40E941702DC01CB0134
:1011F0008E01075A1F4FBC01CD010E944100DC0146
:10120000CB01F801918380831FC0FE01E95AFF4F93
:1012100080E991E091838083FE01E95AFF4F80814C
:1012200091810197F1F7FE01E95AFF4F9183808385
:10123000DE01A75ABF4FFE01E75AFF4F808191811F
:10124000019711969C938E93FE01E75AFF4F808180
:1012500091810097D1F627C08E01075A1F4FFE01DA
:10126000E55AFF4F60817181828193810E94410024
:10127000DC01CB01F80191838083DE01AB5ABF4FC3
:10128000FE01E75AFF4F808191818D939C93FE016F
:10129000EB5AFF4F808191810197F1F7FE01EB5AE4
:1012A000FF4F9183808380E066E00E94812B8CE673
:1012B00090E00E94A82BFE01EF5AFF4F80E090E0E3
:1012C000A8ECB3E480839183A283B3838E01035B94
:1012D0001F4FFE01EF5AFF4F608171818281938120
:1012E00020E030E04AE755E40E941702DC01CB0120
:1012F000F80180839183A283B383FE01E35BFF4FF8
:10130000608171818281938120E030E040E85FE379
:101310000E941D04882344F4FE01E55BFF4F81E039
:1013200090E09183808364C0FE01E35BFF4F6081A6
:1013300071818281938120E03FEF4FE757E40E9463
:10134000BD0318160CF043C0FE01EF5AFF4F608139
:1013500071818281938120E030E040E251E40E947B
:101360001702DC01CB018E01055B1F4FBC01CD01D3
:101370000E944100DC01CB01F801918380831FC0F2
:10138000FE01E75BFF4F80E991E091838083FE01DE
:10139000E75BFF4F808191810197F1F7FE01E75BE9
:1013A000FF4F91838083DE01A55BBF4FFE01E55BAC
:1013B000FF4F80819181019711969C938E93FE013E
:1013C000E55BFF4F808191810097D1F627C08E01A8
:1013D000055B1F4FFE01E35BFF4F608171818281DE
:1013E00093810E944100DC01CB01F801918380834D
:1013F000DE01A95BBF4FFE01E55BFF4F808191815C
:101400008D939C93FE01E95BFF4F80819181019751
:10141000F1F7FE01E95BFF4F9183808380E067E095
:101420000E94812B8CE690E00E94A82BFE01ED5BD0
:10143000FF4F80E090E8ABEBB5E480839183A2831B
:10144000B3838E01015C1F4FFE01ED5BFF4F608196
:1014500071818281938120E030E04AE755E40E9467
:101460001702DC01CB01F80180839183A283B3834F
:10147000FE01FF96608171818281938120E030E0DE
:1014800040E85FE30E941D0488232CF481E090E093
:101490009EAF8DAF46C0FE01FF9660817181828153
:1014A000938120E03FEF4FE757E40E94BD031816F9
:1014B00064F5FE01ED5BFF4F608171818281938154
:1014C00020E030E040E251E40E941702DC01CB0151
:1014D000BC01CD010E944100DC01CB019EAF8DAF6C
:1014E0000FC080E991E09CAF8BAF8BAD9CAD0197B5
:1014F000F1F79CAF8BAF8DAD9EAD01979EAF8DAFD9
:101500008DAD9EAD009769F716C0FE01FF96608114
:101510007181828193810E944100DC01CB019EAFE9
:101520008DAF8DAD9EAD9AAF89AF89AD9AAD019764
:10153000F1F79AAF89AF81E00E946F2A80E060E006
:101540000E94812B8EE690E00E94A82B80E090E024
:10155000A8ECB3E48DAB9EABAFABB8AF6DA97EA9E1
:101560008FA998AD20E030E04AE755E40E941702C9
:10157000DC01CB0189AB9AABABABBCAB69A97AA957
:101580008BA99CA920E030E040E85FE30E941D04A5
:1015900088232CF481E090E098AB8FA73FC069A925
:1015A0007AA98BA99CA920E03FEF4FE757E40E945E
:1015B000BD0318164CF56DA97EA98FA998AD20E042
:1015C00030E040E251E40E941702DC01CB01BC0193
:1015D000CD010E944100DC01CB0198AB8FA70FC069
:1015E00080E991E09EA78DA78DA59EA50197F1F7B3
:1015F0009EA78DA78FA598A9019798AB8FA78FA5B8
:1016000098A9009769F714C069A97AA98BA99CA920
:101610000E944100DC01CB0198AB8FA78FA598A950
:101620009CA78BA78BA59CA50197F1F79CA78BA7DF
:1016300080E066E00E94812B8CE690E00E94A82B5F
:1016400080E090E0A8ECB3E48FA398A7A9A7BAA77D
:101650006FA178A589A59AA520E030E04AE755E476
:101660000E941702DC01CB018BA39CA3ADA3BEA3F8
:101670006BA17CA18DA19EA120E030E040E85FE35A
:101680000E941D0488232CF481E090E09AA389A392
:101690003FC06BA17CA18DA19EA120E03FEF4FE751
:1016A00057E40E94BD0318164CF56FA178A589A5D3
:1016B0009AA520E030E040E251E40E941702DC01EC
:1016C000CB01BC01CD010E944100DC01CB019AA3FA
:1016D00089A30FC080E991E098A38F8F8F8D98A187
:1016E0000197F1F798A38F8F89A19AA101979AA3E7
:1016F00089A389A19AA1009769F714C06BA17CA165
:101700008DA19EA10E944100DC01CB019AA389A377
:1017100089A19AA19E8F8D8F8D8D9E8D0197F1F756
:101720009E8F8D8F80E067E00E94812B8CE690E099
:101730000E94A82B80E090E0A8ECB3E4898F9A8FF8
:10174000AB8FBC8F698D7A8D8B8D9C8D20E030E0C6
:101750004AE755E40E941702DC01CB018D8B9E8B7A
:10176000AF8BB88F6D897E898F89988D20E030E0AE
:1017700040E85FE30E941D0488232CF481E090E0A0
:101780009C8B8B8B3FC06D897E898F89988D20E0E3
:101790003FEF4FE757E40E94BD0318164CF5698DE3
:1017A0007A8D8B8D9C8D20E030E040E251E40E94E8
:1017B0001702DC01CB01BC01CD010E944100DC011C
:1017C000CB019C8B8B8B0FC080E991E09A8B898B2E
:1017D00089899A890197F1F79A8B898B8B899C89E2
:1017E00001979C8B8B8B8B899C89009769F714C020
:1017F0006D897E898F89988D0E944100DC01CB0123
:101800009C8B8B8B8B899C89988B8F878F859889F4
:101810000197F1F7988B8F8780E068E00E94812B19
:101820008CE690E00E94A82B80E090E8ABEBB5E45A
:101830008B879C87AD87BE876B857C858D859E85D4
:1018400020E030E04AE755E40E941702DC01CB01BA
:101850008F839887A987BA876F81788589859A85CC
:1018600020E030E040E85FE30E941D0488232CF470
:1018700081E090E09E838D833FC06F81788589856C
:101880009A8520E03FEF4FE757E40E94BD0318160A
:101890004CF56B857C858D859E8520E030E040E2AF
:1018A00051E40E941702DC01CB01BC01CD010E9472
:1018B0004100DC01CB019E838D830FC080E991E064
:1018C0009C838B838B819C810197F1F79C838B8315
:1018D0008D819E8101979E838D838D819E8100974E
:1018E00069F714C06F81788589859A850E944100C7
:1018F000DC01CB019E838D838D819E819A838983B8
:1019000089819A810197F1F79A83898381E00E9406
:101910006F2A80E060E00E94812B85E790E00E94C2
:10192000A82BC258DF4F0FB6F894DEBF0FBECDBF55
:10193000CF91DF911F910F9108950F93DF93CF9374
:10194000CDB7DEB760E875E280E090E040E020E0EF
:1019500001E00E94713160E875E280E090E00E9451
:101960006A320E94562F81E00E944239CF91DF9166
:101970000F910895DF93CF93CDB7DEB781E70E9433
:10198000BF32CF91DF910895DF93CF93CDB7DEB70C
:1019900087E70E94BF32CF91DF910895DF93CF9305
:1019A000CDB7DEB783E70E94BF32CF91DF910895B4
:1019B000DF93CF93CDB7DEB784E60E94BF32CF91DD
:1019C000DF910895DF93CF93CDB7DEB781E60E9414
:1019D000BF32CF91DF910895DF93CF93CDB7DEB7BC
:1019E00088E70E94BF32CF91DF910895DF93CF93B4
:1019F0000F92CDB7DEB784E00E946F3922E08935BF
:101A0000920748F484E00E946F398837910518F0F6
:101A100081E0898301C0198289810F90CF91DF9184
:101A20000895DF93CF930F92CDB7DEB786E00E9483
:101A30006F398837910550F086E00E946F3922E0B7
:101A40008935920718F481E0898301C01982898160
:101A50000F90CF91DF910895DF93CF930F92CDB781
:101A6000DEB785E00E946F398837910550F085E038
:101A70000E946F3922E08935920718F481E089834A
:101A800001C0198289810F90CF91DF910895DF9372
:101A9000CF930F92CDB7DEB784E00E946F3922E07A
:101AA0008935920748F484E00E946F39893C91059A
:101AB00018F081E0898301C0198289810F90CF914C
:101AC000DF910895DF93CF930F92CDB7DEB784E017
:101AD0000E946F3921E08C32920748F484E00E9422
:101AE0006F398937910518F081E0898301C0198227
:101AF00089810F90CF91DF910895DF93CF93CDB778
:101B0000DEB70E94F60C8823E1F00E94110D8823B5
:101B100019F00E94D80C38C00E942C0D882319F0AF
:101B20000E94E20C31C00E94470D882319F00E94E8
:101B3000BA0C2AC00E94620D882331F10E94C40CA5
:101B400023C00E942C0D882389F00E94110D882348
:101B500051F080E00E94251281E00E94251282E06F
:101B60000E94251211C00E94CE0C0EC00E94110DC1
:101B7000882351F00E94F60C882331F40E942C0D2A
:101B8000882311F40E94EC0CCF91DF9108950F93FC
:101B9000DF93CF93CDB7DEB70E942E3960E875E2B0
:101BA00080E090E040E020E001E00E94713160E8D8
:101BB00075E280E090E00E946A320E940F070E9466
:101BC0007D0DFDCFDF93CF93CDB7DEB781E061E030
:101BD00041E00E94993581E062E041E00E94993540
:101BE00080E064E041E00E94993580E065E041E0FA
:101BF0000E94993580E066E041E00E94993580E0DE
:101C000067E041E00E949935CF91DF910895DF931D
:101C1000CF93CDB7DEB7E3970FB6F894DEBF0FBE14
:101C2000CDBF8BAB8BA99AE0692F0E94173A892F01
:101C30008295807F8AAB8BA99AE0692F0E94173A20
:101C40008295807F89AB81E062E041E00E947C3632
:101C500081E061E040E00E947C3680E069A94FE0CD
:101C60000E94D83780E090E0A6E9B3E48DA79EA754
:101C7000AFA7B8AB6DA57EA58FA598A92BEA3AEAC8
:101C80004AEA50E40E941702DC01CB0189A79AA717
:101C9000ABA7BCA769A57AA58BA59CA520E030E0E1
:101CA00040E85FE30E941D0488231CF481E088A7BC
:101CB00091C069A57AA58BA59CA520E030E04FE7EF
:101CC00053E40E94BD0318160CF07BC06DA57EA5E1
:101CD0008FA598A920E030E04AE754E40E94110360
:101CE000DC01CB018CA39DA3AEA3BFA36CA17DA1FE
:101CF0008EA19FA120E030E04AE755E40E94170240
:101D0000DC01CB0188A399A3AAA3BBA368A179A1F5
:101D10008AA19BA120E030E040E85FE30E941D041F
:101D200088232CF481E090E09F8F8E8F3FC068A1C4
:101D300079A18AA19BA120E03FEF4FE757E40E94E1
:101D4000BD0318164CF56CA17DA18EA19FA120E0CA
:101D500030E040E251E40E941702DC01CB01BC01FB
:101D6000CD010E944100DC01CB019F8F8E8F0FC0FF
:101D700080E991E09D8F8C8F8C8D9D8D0197F1F77F
:101D80009D8F8C8F8E8D9F8D01979F8F8E8F8E8DC7
:101D90009F8D009769F724C068A179A18AA19BA1B2
:101DA0000E944100DC01CB019F8F8E8F8E8D9F8D15
:101DB0009B8F8A8F8A8D9B8D0197F1F79B8F8A8FDE
:101DC0000FC069A57AA58BA59CA50E944100DC01E6
:101DD000CB0188A788A5898F898D8A95F1F7898F8E
:101DE00081E062E040E00E947C3681E061E041E019
:101DF0000E947C3680E06AA94FE00E94D83780E0DC
:101E000090E0A6E9B3E48D8B9E8BAF8BB88F6D8984
:101E10007E898F89988D2BEA3AEA4AEA50E40E943B
:101E20001702DC01CB01898B9A8BAB8BBC8B698948
:101E30007A898B899C8920E030E040E85FE30E944A
:101E40001D0488231CF481E0888B91C069897A89FC
:101E50008B899C8920E030E04FE753E40E94BD036A
:101E600018160CF07BC06D897E898F89988D20E0D3
:101E700030E04AE754E40E941103DC01CB018C8777
:101E80009D87AE87BF876C857D858E859F8520E089
:101E900030E04AE755E40E941702DC01CB01888755
:101EA0009987AA87BB87688579858A859B8520E085
:101EB00030E040E85FE30E941D0488232CF481E0B9
:101EC00090E09F838E833FC0688579858A859B8556
:101ED00020E03FEF4FE757E40E94BD0318164CF592
:101EE0006C857D858E859F8520E030E040E251E461
:101EF0000E941702DC01CB01BC01CD010E94410010
:101F0000DC01CB019F838E830FC080E991E09D832C
:101F10008C838C819D810197F1F79D838C838E81C9
:101F20009F8101979F838E838E819F81009769F7A0
:101F300024C0688579858A859B850E944100DC01E3
:101F4000CB019F838E838E819F819B838A838A812D
:101F50009B810197F1F79B838A830FC069897A89F6
:101F60008B899C890E944100DC01CB01888B888988
:101F7000898389818A95F1F78983E3960FB6F8946E
:101F8000DEBF0FBECDBFCF91DF910895DF93CF931A
:101F9000CDB7DEB7A3970FB6F894DEBF0FBECDBFA7
:101FA0008BA38BA19AE0692F0E94173A892F829503
:101FB000807F8AA38BA19AE0692F0E94173A8295AD
:101FC000807F89A318A21F8E15C11E8E1D8E07C18A
:101FD00081E062E041E00E947C3681E061E040E027
:101FE0000E947C3680E069A14FE00E94D83780E0F3
:101FF00090E0A0E2B1E4898F9A8FAB8FBC8F698D9E
:102000007A8D8B8D9C8D20E030E04AE755E40E946C
:102010001702DC01CB018D8B9E8BAF8BB88F6D8946
:102020007E898F89988D20E030E040E85FE30E9450
:102030001D0488232CF481E090E09C8B8B8B3FC0A7
:102040006D897E898F89988D20E03FEF4FE757E4B7
:102050000E94BD0318164CF5698D7A8D8B8D9C8D71
:1020600020E030E040E251E40E941702DC01CB01A5
:10207000BC01CD010E944100DC01CB019C8B8B8B0C
:102080000FC080E991E09A8B898B89899A890197A1
:10209000F1F79A8B898B8B899C8901979C8B8B8B11
:1020A0008B899C89009769F714C06D897E898F8917
:1020B000988D0E944100DC01CB019C8B8B8B8B891E
:1020C0009C89988B8F878F8598890197F1F7988BDA
:1020D0008F8781E062E040E00E947C3681E061E031
:1020E00041E00E947C3680E06AA14FE00E94D83730
:1020F00080E090E0A0E2B1E48B879C87AD87BE874B
:102100006B857C858D859E8520E030E04AE755E42F
:102110000E941702DC01CB018F839887A987BA87B9
:102120006F81788589859A8520E030E040E85FE31B
:102130000E941D0488232CF481E090E09E838D830F
:102140003FC06F81788589859A8520E03FEF4FE712
:1021500057E40E94BD0318164CF56B857C858D8570
:102160009E8520E030E040E251E40E941702DC014D
:10217000CB01BC01CD010E944100DC01CB019E835B
:102180008D830FC080E991E09C838B838B819C8140
:102190000197F1F79C838B838D819E8101979E83AC
:1021A0008D838D819E81009769F714C06F8178853A
:1021B00089859A850E944100DC01CB019E838D8335
:1021C0008D819E819A83898389819A810197F1F714
:1021D0009A8389838D8D9E8D01969E8F8D8F8D8D97
:1021E0009E8D8A3091050CF4F3CE8F8D98A10196C7
:1021F00098A38F8F8F8D98A1853091050CF4E5CE33
:10220000A3960FB6F894DEBF0FBECDBFCF91DF917E
:102210000895DF93CF93CDB7DEB729970FB6F89423
:10222000DEBF0FBECDBF8D834E835F836887798706
:1022300019821A821B821C820EC08D810E94070E99
:1022400089819A81AB81BC810196A11DB11D8983D1
:102250009A83AB83BC838E819F81A885B9859C01BD
:10226000AD01569547953795279589819A81AB8120
:10227000BC8182179307A407B507F8F229960FB619
:10228000F894DEBF0FBECDBFCF91DF910895DF93ED
:10229000CF93CDB7DEB781E00E944239CF91DF9175
:1022A0000895DF93CF9300D000D000D0CDB7DEB734
:1022B00081E00E94B139DC01CB018B839C83AD832B
:1022C000BE836B817C818D819E8120E030E040E285
:1022D00051E40E941103DC01CB01BC01CD010E943D
:1022E0004100DC01CB019A838983898126960FB650
:1022F000F894DEBF0FBECDBFCF91DF910895DF937D
:10230000CF93CDB7DEB782E062E041E00E9499351D
:1023100082E067E041E00E94993583E063E041E0BC
:102320000E949935CF91DF910895DF93CF9300D02C
:102330000F92CDB7DEB789838981282F30E03B83A8
:102340002A838A819B818130910579F02A813B81A2
:102350002230310581F08A819B81009789F482E0E7
:1023600062E041E00E947C360BC082E067E041E021
:102370000E947C3605C083E063E041E00E947C3629
:102380000F900F900F90CF91DF910895DF93CF932F
:1023900000D00F92CDB7DEB789838981282F30E036
:1023A0003B832A838A819B818130910579F02A8140
:1023B0003B812230310581F08A819B81009789F42D
:1023C00082E062E040E00E947C360BC082E067E081
:1023D00040E00E947C3605C083E063E040E00E945C
:1023E0007C360F900F900F90CF91DF910895DF937F
:1023F000CF9300D00F92CDB7DEB789838981282F84
:1024000030E03B832A838A819B818130910571F082
:102410002A813B812230310571F08A819B810097AE
:1024200071F482E062E00E94B13809C082E067E0A6
:102430000E94B13804C083E063E00E94B1380F907D
:102440000F900F90CF91DF9108950F931F93DF931B
:10245000CF93CDB7DEB7C75AD1400FB6F894DEBFE1
:102460000FBECDBFFE01EB55FE4F8083FE01EB5545
:10247000FE4F8081282F30E0CA55DE4F39832883F4
:10248000C65AD140CA55DE4F88819981C65AD1407B
:102490008130910509F436C7CA55DE4FE881F981CC
:1024A000C65AD140E230F10511F40C94A020CA556F
:1024B000DE4F28813981C65AD1402115310511F0EE
:1024C0000C948A2680E00E949511FE01EF55FE4F84
:1024D00080E090E0AAEFB3E480839183A283B3838A
:1024E0008E0103561E4FFE01EF55FE4F6081718134
:1024F0008281938120E030E04AE755E40E94170290
:10250000DC01CB01F80180839183A283B383FE01B8
:10251000E356FE4F608171818281938120E030E03B
:1025200040E85FE30E941D04882344F4FE01E55661
:10253000FE4F81E090E09183808364C0FE01E3560A
:10254000FE4F608171818281938120E03FEF4FE7F0
:1025500057E40E94BD0318160CF043C0FE01EF556E
:10256000FE4F608171818281938120E030E040E202
:1025700051E40E941702DC01CB018E0105561E4F6B
:10258000BC01CD010E944100DC01CB01F801918327
:1025900080831FC0FE01E756FE4F80E991E09183E2
:1025A0008083FE01E756FE4F808191810197F1F70C
:1025B000FE01E756FE4F91838083DE01A556BE4F94
:1025C000FE01E556FE4F80819181019711969C9303
:1025D0008E93FE01E556FE4F808191810097D1F6E2
:1025E00027C08E0105561E4FFE01E356FE4F608147
:1025F0007181828193810E944100DC01CB01F8014D
:1026000091838083DE01A956BE4FFE01E556FE4F41
:10261000808191818D939C93FE01E956FE4F8081CC
:1026200091810197F1F7FE01E956FE4F9183808376
:1026300080E00E94C611FE01ED56FE4F80E090E062
:10264000AAEFB3E480839183A283B3838E01015701
:102650001E4FFE01ED56FE4F608171818281938194
:1026600020E030E04AE755E40E941702DC01CB018C
:10267000F80180839183A283B383FE01E157FE4F6B
:10268000608171818281938120E030E040E85FE3E6
:102690000E941D04882344F4FE01E357FE4F81E0AD
:1026A00090E09183808364C0FE01E157FE4F60811A
:1026B00071818281938120E03FEF4FE757E40E94D0
:1026C000BD0318160CF043C0FE01ED56FE4F6081AD
:1026D00071818281938120E030E040E251E40E94E8
:1026E0001702DC01CB018E0103571E4FBC01CD0147
:1026F0000E944100DC01CB01F801918380831FC05F
:10270000FE01E557FE4F80E991E091838083FE0151
:10271000E557FE4F808191810197F1F7FE01E55762
:10272000FE4F91838083DE01A357BE4FFE01E35726
:10273000FE4F80819181019711969C938E93FE01AB
:10274000E357FE4F808191810097D1F627C08E011B
:1027500003571E4FFE01E157FE4F60817181828158
:1027600093810E944100DC01CB01F80191838083B9
:10277000DE01A757BE4FFE01E357FE4F80819181D6
:102780008D939C93FE01E757FE4F808191810197C5
:10279000F1F7FE01E757FE4F9183808380E00E94AE
:1027A0009511FE01EB57FE4F80E090E0A8ECB2E4FB
:1027B00080839183A283B3838E010F571E4FFE0146
:1027C000EB57FE4F608171818281938120E030E080
:1027D0004AE755E40E941702DC01CB01F80180832F
:1027E0009183A283B383FE01EF57FE4F6081718115
:1027F0008281938120E030E040E85FE30E941D0485
:10280000882344F4FE01E158FE4F81E090E091837B
:10281000808364C0FE01EF57FE4F60817181828129
:10282000938120E03FEF4FE757E40E94BD03181665
:102830000CF043C0FE01EB57FE4F60817181828135
:10284000938120E030E040E251E40E941702DC0175
:10285000CB018E0101581E4FBC01CD010E944100E9
:10286000DC01CB01F801918380831FC0FE01E35896
:10287000FE4F80E991E091838083FE01E358FE4F93
:10288000808191810197F1F7FE01E358FE4F91831A
:102890008083DE01A158BE4FFE01E158FE4F8081CA
:1028A0009181019711969C938E93FE01E158FE4F02
:1028B000808191810097D1F627C08E0101581E4F6B
:1028C000FE01EF57FE4F60817181828193810E94EA
:1028D0004100DC01CB01F80191838083DE01A55822
:1028E000BE4FFE01E158FE4F808191818D939C93F4
:1028F000FE01E558FE4F808191810197F1F7FE01BD
:10290000E558FE4F9183808380E00E94C611FE014E
:10291000E958FE4F80E090E0A8ECB2E48083918318
:10292000A283B3838E010D581E4FFE01E958FE4F5E
:10293000608171818281938120E030E04AE755E433
:102940000E941702DC01CB01F80180839183A283EE
:10295000B383FE01ED58FE4F6081718182819381C6
:1029600020E030E040E85FE30E941D04882344F447
:10297000FE01EF58FE4F81E090E09183808364C0B8
:10298000FE01ED58FE4F608171818281938120E0CC
:102990003FEF4FE757E40E94BD0318160CF043C009
:1029A000FE01E958FE4F608171818281938120E0B0
:1029B00030E040E251E40E941702DC01CB018E01BD
:1029C0000F581E4FBC01CD010E944100DC01CB011C
:1029D000F801918380831FC0FE01E159FE4F80E919
:1029E00091E091838083FE01E159FE4F80819181C6
:1029F0000197F1F7FE01E159FE4F91838083DE01DB
:102A0000AF58BE4FFE01EF58FE4F80819181019774
:102A100011969C938E93FE01EF58FE4F8081918119
:102A20000097D1F627C08E010F581E4FFE01ED58BA
:102A3000FE4F60817181828193810E944100DC019F
:102A4000CB01F80191838083DE01A359BE4FFE01C3
:102A5000EF58FE4F808191818D939C93FE01E35945
:102A6000FE4F808191810197F1F7FE01E359FE4FFE
:102A70009183808380E00E949511FE01E759FE4F0B
:102A800080E090E0AAEFB3E480839183A283B383D4
:102A90008E010B591E4FFE01E759FE4F6081718177
:102AA0008281938120E030E04AE755E40E941702DA
:102AB000DC01CB01F80180839183A283B383FE0103
:102AC000EB59FE4F608171818281938120E030E07B
:102AD00040E85FE30E941D04882344F4FE01ED59A1
:102AE000FE4F81E090E09183808364C0FE01EB594A
:102AF000FE4F608171818281938120E03FEF4FE73B
:102B000057E40E94BD0318160CF043C0FE01E759BC
:102B1000FE4F608171818281938120E030E040E24C
:102B200051E40E941702DC01CB018E010D591E4FAA
:102B3000BC01CD010E944100DC01CB01F801918371
:102B400080831FC0FE01EF59FE4F80E991E0918321
:102B50008083FE01EF59FE4F808191810197F1F74B
:102B6000FE01EF59FE4F91838083DE01AD59BE4FC8
:102B7000FE01ED59FE4F80819181019711969C9342
:102B80008E93FE01ED59FE4F808191810097D1F621
:102B900027C08E010D591E4FFE01EB59FE4F60817B
:102BA0007181828193810E944100DC01CB01F80197
:102BB00091838083DE01A15ABE4FFE01ED59FE4F85
:102BC000808191818D939C93FE01E15AFE4F80811B
:102BD00091810197F1F7FE01E15AFE4F91838083C5
:102BE00080E00E94C611FE01E55AFE4F80E090E0B1
:102BF000AAEFB3E480839183A283B3838E01095A41
:102C00001E4FFE01E55AFE4F6081718182819381E2
:102C100020E030E04AE755E40E941702DC01CB01D6
:102C2000F80180839183A283B383FE01E95AFE4FAA
:102C3000608171818281938120E030E040E85FE330
:102C40000E941D04882344F4FE01EB5AFE4F81E0EC
:102C500090E09183808364C0FE01E95AFE4F608159
:102C600071818281938120E03FEF4FE757E40E941A
:102C7000BD0318160CF043C0FE01E55AFE4F6081FB
:102C800071818281938120E030E040E251E40E9432
:102C90001702DC01CB018E010B5A1E4FBC01CD0186
:102CA0000E944100DC01CB01F801918380831FC0A9
:102CB000FE01ED5AFE4F80E991E091838083FE0191
:102CC000ED5AFE4F808191810197F1F7FE01ED5A97
:102CD000FE4F91838083DE01AB5ABE4FFE01EB5A5B
:102CE000FE4F80819181019711969C938E93FE01F6
:102CF000EB5AFE4F808191810097D1F627C08E015B
:102D00000B5A1E4FFE01E95AFE4F6081718182818C
:102D100093810E944100DC01CB01F8019183808303
:102D2000DE01AF5ABE4FFE01EB5AFE4F808191810A
:102D30008D939C93FE01EF5AFE4F80819181019704
:102D4000F1F7FE01EF5AFE4F9183808380E00E94ED
:102D50009511FE01E35BFE4F80E090E0A8ECB2E449
:102D600080839183A283B3838E01075B1E4FFE0194
:102D7000E35BFE4F608171818281938120E030E0CE
:102D80004AE755E40E941702DC01CB01F801808379
:102D90009183A283B383FE01E75BFE4F6081718163
:102DA0008281938120E030E040E85FE30E941D04CF
:102DB000882344F4FE01E95BFE4F81E090E09183BB
:102DC000808364C0FE01E75BFE4F60817181828178
:102DD000938120E03FEF4FE757E40E94BD031816B0
:102DE0000CF043C0FE01E35BFE4F60817181828184
:102DF000938120E030E040E251E40E941702DC01C0
:102E0000CB018E01095B1E4FBC01CD010E94410028
:102E1000DC01CB01F801918380831FC0FE01EB5BD5
:102E2000FE4F80E991E091838083FE01EB5BFE4FD2
:102E3000808191810197F1F7FE01EB5BFE4F918359
:102E40008083DE01A95BBE4FFE01E95BFE4F8081FE
:102E50009181019711969C938E93FE01E95BFE4F41
:102E6000808191810097D1F627C08E01095B1E4FAA
:102E7000FE01E75BFE4F60817181828193810E9438
:102E80004100DC01CB01F80191838083DE01AD5B61
:102E9000BE4FFE01E95BFE4F808191818D939C9333
:102EA000FE01ED5BFE4F808191810197F1F7FE01FC
:102EB000ED5BFE4F9183808380E00E94C611FE018E
:102EC000E15CFE4F80E090E0A8ECB2E48083918367
:102ED000A283B3838E01055C1E4FFE01E15CFE4FB1
:102EE000608171818281938120E030E04AE755E47E
:102EF0000E941702DC01CB01F80180839183A28339
:102F0000B383FE01E55CFE4F608171818281938114
:102F100020E030E040E85FE30E941D04882344F491
:102F2000FE01E75CFE4F81E090E09183808364C006
:102F3000FE01E55CFE4F608171818281938120E01A
:102F40003FEF4FE757E40E94BD0318160CF043C053
:102F5000FE01E15CFE4F608171818281938120E0FE
:102F600030E040E251E40E941702DC01CB018E0107
:102F7000075C1E4FBC01CD010E944100DC01CB016A
:102F8000F801918380831FC0FE01E95CFE4F80E958
:102F900091E091838083FE01E95CFE4F8081918105
:102FA0000197F1F7FE01E95CFE4F91838083DE011A
:102FB000A75CBE4FFE01E75CFE4F808191810197C7
:102FC00011969C938E93FE01E75CFE4F8081918168
:102FD0000097D1F627C08E01075C1E4FFE01E55C0D
:102FE000FE4F60817181828193810E944100DC01EA
:102FF000CB01F80191838083DE01AB5CBE4FFE0103
:10300000E75CFE4F808191818D939C93FE01EB5C88
:10301000FE4F808191810197F1F7FE01EB5CFE4F3D
:103020009183808380E00E949511FE01EF5CFE4F4A
:1030300080E090E0A8E4B3E480839183A283B3832B
:103040008E01035D1E4FFE01EF5CFE4F60817181BA
:103050008281938120E030E04AE755E40E94170224
:10306000DC01CB01F80180839183A283B383FE014D
:10307000E35DFE4F608171818281938120E030E0C9
:1030800040E85FE30E941D04882344F4FE01E55DEF
:10309000FE4F81E090E09183808364C0FE01E35D98
:1030A000FE4F608171818281938120E03FEF4FE785
:1030B00057E40E94BD0318160CF043C0FE01EF5CFC
:1030C000FE4F608171818281938120E030E040E297
:1030D00051E40E941702DC01CB018E01055D1E4FF9
:1030E000BC01CD010E944100DC01CB01F8019183BC
:1030F00080831FC0FE01E75DFE4F80E991E0918370
:103100008083FE01E75DFE4F808191810197F1F799
:10311000FE01E75DFE4F91838083DE01A55DBE4F1A
:10312000FE01E55DFE4F80819181019711969C9390
:103130008E93FE01E55DFE4F808191810097D1F66F
:1031400027C08E01055D1E4FFE01E35DFE4F6081CD
:103150007181828193810E944100DC01CB01F801E1
:1031600091838083DE01A95DBE4FFE01E55DFE4FC8
:10317000808191818D939C93FE01E95DFE4F80815A
:1031800091810197F1F7FE01E95DFE4F9183808304
:1031900080E00E94C611FE01ED5DFE4F80E090E0F0
:1031A000A8E4B3E480839183A283B3838E01015E9C
:1031B0001E4FFE01ED5DFE4F608171818281938122
:1031C00020E030E04AE755E40E941702DC01CB0121
:1031D000F80180839183A283B383FE01E15EFE4FF9
:1031E000608171818281938120E030E040E85FE37B
:1031F0000E941D04882344F4FE01E35EFE4F81E03B
:1032000090E09183808365C0FE01E15EFE4F6081A6
:1032100071818281938120E03FEF4FE757E40E9464
:10322000BD0318160CF044C0FE01ED5DFE4F608139
:1032300071818281938120E030E040E251E40E947C
:103240001702DC01CB018E01035E1E4FBC01CD01D4
:103250000E944100DC01CB01F801918380831FC0F3
:10326000FE01E55EFE4F80E991E091838083FE01DF
:10327000E55EFE4F808191810197F1F7FE01E55EE9
:10328000FE4F91838083DE01A35EBE4FFE01E35EAD
:10329000FE4F80819181019711969C938E93FE0140
:1032A000E35EFE4F808191810097D1F60C948A26CF
:1032B0008E01035E1E4FFE01E15EFE4F6081718153
:1032C000828193810E944100DC01CB01F80191834E
:1032D0008083DE01A75EBE4FFE01E35EFE4F80816C
:1032E000918111969C938E93FE01E75EFE4F808143
:1032F00091810197F1F7FE01E75EFE4F9183808394
:103300000C948A2681E00E949511FE01EB5EFE4F2F
:1033100080E090E0AAEFB3E480839183A283B3833B
:103320008E010F5E1E4FFE01EB5EFE4F60817181CC
:103330008281938120E030E04AE755E40E94170241
:10334000DC01CB01F80180839183A283B383FE016A
:10335000EF5EFE4F608171818281938120E030E0D9
:1033600040E85FE30E941D04882344F4FE01E15F0E
:10337000FE4F81E090E09183808364C0FE01EF5EA8
:10338000FE4F608171818281938120E03FEF4FE7A2
:1033900057E40E94BD0318160CF043C0FE01EB5E1B
:1033A000FE4F608171818281938120E030E040E2B4
:1033B00051E40E941702DC01CB018E01015F1E4F18
:1033C000BC01CD010E944100DC01CB01F8019183D9
:1033D00080831FC0FE01E35FFE4F80E991E091838F
:1033E0008083FE01E35FFE4F808191810197F1F7B9
:1033F000FE01E35FFE4F91838083DE01A15FBE4F3C
:10340000FE01E15FFE4F80819181019711969C93AF
:103410008E93FE01E15FFE4F808191810097D1F68E
:1034200027C08E01015F1E4FFE01EF5EFE4F6081DF
:103430007181828193810E944100DC01CB01F801FE
:1034400091838083DE01A55FBE4FFE01E15FFE4FE9
:10345000808191818D939C93FE01E55FFE4F808179
:1034600091810197F1F7FE01E55FFE4F9183808323
:1034700081E00E94C611FE01E95FFE4F80E090E00E
:10348000AAEFB3E480839183A283B3838E010D5F9F
:103490001E4FFE01E95FFE4F608171818281938141
:1034A00020E030E04AE755E40E941702DC01CB013E
:1034B000F80180839183A283B383FE01ED5FFE4F09
:1034C000608171818281938120E030E040E85FE398
:1034D0000E941D04882344F4FE01EF5FFE4F81E04B
:1034E00090E09183808364C0FE01ED5FFE4F6081B8
:1034F00071818281938120E03FEF4FE757E40E9482
:10350000BD0318160CF043C0FE01E95FFE4F608159
:1035100071818281938120E030E040E251E40E9499
:103520001702DC01CB018E010F5F1E4FBC01CD01E4
:103530000E944100DC01CB01F801918380831FC010
:10354000FE01E150FF4F80E991E091838083FE010D
:10355000E150FF4F808191810197F1F7FE01E15029
:10356000FF4F91838083DE01AF5FBE4FFE01EF5FAF
:10357000FE4F80819181019711969C938E93FE015D
:10358000EF5FFE4F808191810097D1F627C08E01B9
:103590000F5F1E4FFE01ED5FFE4F608171818281E2
:1035A00093810E944100DC01CB01F801918380836B
:1035B000DE01A350BF4FFE01EF5FFE4F808191817E
:1035C0008D939C93FE01E350FF4F80819181019781
:1035D000F1F7FE01E350FF4F9183808381E00E9469
:1035E0009511FE01E750FF4F80E090E0A8ECB2E4B7
:1035F00080839183A283B3838E010B501F4FFE0102
:10360000E750FF4F608171818281938120E030E03B
:103610004AE755E40E941702DC01CB01F8018083E0
:103620009183A283B383FE01EB50FF4F60817181D0
:103630008281938120E030E040E85FE30E941D0436
:10364000882344F4FE01ED50FF4F81E090E0918328
:10365000808364C0FE01EB50FF4F608171818281E5
:10366000938120E03FEF4FE757E40E94BD03181617
:103670000CF043C0FE01E750FF4F608171818281F1
:10368000938120E030E040E251E40E941702DC0127
:10369000CB018E010D501F4FBC01CD010E94410096
:1036A000DC01CB01F801918380831FC0FE01EF5044
:1036B000FF4F80E991E091838083FE01EF50FF4F3F
:1036C000808191810197F1F7FE01EF50FF4F9183C7
:1036D0008083DE01AD50BF4FFE01ED50FF4F808172
:1036E0009181019711969C938E93FE01ED50FF4FAF
:1036F000808191810097D1F627C08E010D501F4F18
:10370000FE01EB50FF4F60817181828193810E94A5
:103710004100DC01CB01F80191838083DE01A151DE
:10372000BF4FFE01ED50FF4F808191818D939C939F
:10373000FE01E151FF4F808191810197F1F7FE0178
:10374000E151FF4F9183808381E00E94C611FE0109
:10375000E551FF4F80E090E0A8ECB2E480839183D4
:10376000A283B3838E0109511F4FFE01E551FF4F24
:10377000608171818281938120E030E04AE755E4E5
:103780000E941702DC01CB01F80180839183A283A0
:10379000B383FE01E951FF4F608171818281938182
:1037A00020E030E040E85FE30E941D04882344F4F9
:1037B000FE01EB51FF4F81E090E09183808364C074
:1037C000FE01E951FF4F608171818281938120E088
:1037D0003FEF4FE757E40E94BD0318160CF043C0BB
:1037E000FE01E551FF4F608171818281938120E06C
:1037F00030E040E251E40E941702DC01CB018E016F
:103800000B511F4FBC01CD010E944100DC01CB01D7
:10381000F801918380831FC0FE01ED51FF4F80E9C5
:1038200091E091838083FE01ED51FF4F8081918172
:103830000197F1F7FE01ED51FF4F91838083DE0187
:10384000AB51BF4FFE01EB51FF4F8081918101973A
:1038500011969C938E93FE01EB51FF4F80819181D5
:103860000097D1F627C08E010B511F4FFE01E95181
:10387000FF4F60817181828193810E944100DC0150
:10388000CB01F80191838083DE01AF51BF4FFE0170
:10389000EB51FF4F808191818D939C93FE01EF51FD
:1038A000FF4F808191810197F1F7FE01EF51FF4FAA
:1038B0009183808381E00E949511FE01E352FF4FC6
:1038C00080E090E0AAEFB3E480839183A283B38386
:1038D0008E0107521F4FFE01E352FF4F608171813D
:1038E0008281938120E030E04AE755E40E9417028C
:1038F000DC01CB01F80180839183A283B383FE01B5
:10390000E752FF4F608171818281938120E030E036
:1039100040E85FE30E941D04882344F4FE01E9525D
:10392000FF4F81E090E09183808364C0FE01E75205
:10393000FF4F608171818281938120E03FEF4FE7EB
:1039400057E40E94BD0318160CF043C0FE01E35279
:10395000FF4F608171818281938120E030E040E2FD
:1039600051E40E941702DC01CB018E0109521F4F66
:10397000BC01CD010E944100DC01CB01F801918323
:1039800080831FC0FE01EB52FF4F80E991E09183DD
:103990008083FE01EB52FF4F808191810197F1F707
:1039A000FE01EB52FF4F91838083DE01A952BF4F8E
:1039B000FE01E952FF4F80819181019711969C93FE
:1039C0008E93FE01E952FF4F808191810097D1F6DD
:1039D00027C08E0109521F4FFE01E752FF4F608141
:1039E0007181828193810E944100DC01CB01F80149
:1039F00091838083DE01AD52BF4FFE01E952FF4F3C
:103A0000808191818D939C93FE01ED52FF4F8081C7
:103A100091810197F1F7FE01ED52FF4F9183808371
:103A200081E00E94C611FE01E153FF4F80E090E06B
:103A3000AAEFB3E480839183A283B3838E010553FD
:103A40001F4FFE01E153FF4F60817181828193819D
:103A500020E030E04AE755E40E941702DC01CB0188
:103A6000F80180839183A283B383FE01E553FF4F66
:103A7000608171818281938120E030E040E85FE3E2
:103A80000E941D04882344F4FE01E753FF4F81E0A8
:103A900090E09183808364C0FE01E553FF4F608115
:103AA00071818281938120E03FEF4FE757E40E94CC
:103AB000BD0318160CF043C0FE01E153FF4F6081B7
:103AC00071818281938120E030E040E251E40E94E4
:103AD0001702DC01CB018E0107531F4FBC01CD0142
:103AE0000E944100DC01CB01F801918380831FC05B
:103AF000FE01E953FF4F80E991E091838083FE014D
:103B0000E953FF4F808191810197F1F7FE01E9535D
:103B1000FF4F91838083DE01A753BF4FFE01E75320
:103B2000FF4F80819181019711969C938E93FE01A6
:103B3000E753FF4F808191810097D1F627C08E0116
:103B400007531F4FFE01E553FF4F60817181828152
:103B500093810E944100DC01CB01F80191838083B5
:103B6000DE01AB53BF4FFE01E753FF4F80819181D0
:103B70008D939C93FE01EB53FF4F808191810197C0
:103B8000F1F7FE01EB53FF4F9183808381E00E94A8
:103B90009511FE01EF53FF4F80E090E0A8ECB2E4F6
:103BA00080839183A283B3838E0103541F4FFE0150
:103BB000EF53FF4F608171818281938120E030E07B
:103BC0004AE755E40E941702DC01CB01F80180832B
:103BD0009183A283B383FE01E354FF4F608171811F
:103BE0008281938120E030E040E85FE30E941D0481
:103BF000882344F4FE01E554FF4F81E090E0918377
:103C0000808364C0FE01E354FF4F60817181828133
:103C1000938120E03FEF4FE757E40E94BD03181661
:103C20000CF043C0FE01EF53FF4F60817181828130
:103C3000938120E030E040E251E40E941702DC0171
:103C4000CB018E0105541F4FBC01CD010E944100E4
:103C5000DC01CB01F801918380831FC0FE01E75492
:103C6000FF4F80E991E091838083FE01E754FF4F8D
:103C7000808191810197F1F7FE01E754FF4F918315
:103C80008083DE01A554BF4FFE01E554FF4F8081C4
:103C90009181019711969C938E93FE01E554FF4FFD
:103CA000808191810097D1F627C08E0105541F4F66
:103CB000FE01E354FF4F60817181828193810E94F4
:103CC0004100DC01CB01F80191838083DE01A9541E
:103CD000BF4FFE01E554FF4F808191818D939C93EE
:103CE000FE01E954FF4F808191810197F1F7FE01B8
:103CF000E954FF4F9183808381E00E94C611FE0149
:103D0000ED54FF4F80E090E0A8ECB2E48083918313
:103D1000A283B3838E0101551F4FFE01ED54FF4F67
:103D2000608171818281938120E030E04AE755E42F
:103D30000E941702DC01CB01F80180839183A283EA
:103D4000B383FE01E155FF4F6081718182819381D0
:103D500020E030E040E85FE30E941D04882344F443
:103D6000FE01E355FF4F81E090E09183808364C0C2
:103D7000FE01E155FF4F608171818281938120E0D6
:103D80003FEF4FE757E40E94BD0318160CF043C005
:103D9000FE01ED54FF4F608171818281938120E0AB
:103DA00030E040E251E40E941702DC01CB018E01B9
:103DB00003551F4FBC01CD010E944100DC01CB0126
:103DC000F801918380831FC0FE01E555FF4F80E914
:103DD00091E091838083FE01E555FF4F80819181C1
:103DE0000197F1F7FE01E555FF4F91838083DE01D6
:103DF000A355BF4FFE01E355FF4F8081918101978D
:103E000011969C938E93FE01E355FF4F8081918123
:103E10000097D1F627C08E0103551F4FFE01E155D3
:103E2000FF4F60817181828193810E944100DC019A
:103E3000CB01F80191838083DE01A755BF4FFE01BE
:103E4000E355FF4F808191818D939C93FE01E7554F
:103E5000FF4F808191810197F1F7FE01E755FF4FF8
:103E60009183808381E00E949511FE01EB55FF4F05
:103E700080E090E0A8E4B3E480839183A283B383DD
:103E80008E010F551F4FFE01EB55FF4F6081718171
:103E90008281938120E030E04AE755E40E941702D6
:103EA000DC01CB01F80180839183A283B383FE01FF
:103EB000EF55FF4F608171818281938120E030E076
:103EC00040E85FE30E941D04882344F4FE01E156AC
:103ED000FF4F81E090E09183808364C0FE01EF5545
:103EE000FF4F608171818281938120E03FEF4FE736
:103EF00057E40E94BD0318160CF043C0FE01EB55B9
:103F0000FF4F608171818281938120E030E040E247
:103F100051E40E941702DC01CB018E0101561F4FB4
:103F2000BC01CD010E944100DC01CB01F80191836D
:103F300080831FC0FE01E356FF4F80E991E091832B
:103F40008083FE01E356FF4F808191810197F1F755
:103F5000FE01E356FF4F91838083DE01A156BF4FE0
:103F6000FE01E156FF4F80819181019711969C934C
:103F70008E93FE01E156FF4F808191810097D1F62B
:103F800027C08E0101561F4FFE01EF55FF4F608184
:103F90007181828193810E944100DC01CB01F80193
:103FA00091838083DE01A556BF4FFE01E156FF4F8E
:103FB000808191818D939C93FE01E556FF4F808116
:103FC00091810197F1F7FE01E556FF4F91838083C0
:103FD00081E00E94C611FE01E956FF4F80E090E0AB
:103FE000A8E4B3E480839183A283B3838E010D564A
:103FF0001F4FFE01E956FF4F6081718182819381DD
:1040000020E030E04AE755E40E941702DC01CB01D2
:10401000F80180839183A283B383FE01ED56FF4FA5
:10402000608171818281938120E030E040E85FE32C
:104030000E941D04882344F4FE01EF56FF4F81E0E7
:1040400090E09183808364C0FE01ED56FF4F608154
:1040500071818281938120E03FEF4FE757E40E9416
:10406000BD0318160CF043C0FE01E956FF4F6081F6
:1040700071818281938120E030E040E251E40E942E
:104080001702DC01CB018E010F561F4FBC01CD0181
:104090000E944100DC01CB01F801918380831FC0A5
:1040A000FE01E157FF4F80E991E091838083FE019B
:1040B000E157FF4F808191810197F1F7FE01E157B0
:1040C000FF4F91838083DE01AF56BF4FFE01EF5655
:1040D000FF4F80819181019711969C938E93FE01F1
:1040E000EF56FF4F808191810097D1F613C68E0164
:1040F0000F561F4FFE01ED56FF4F60817181828187
:1041000093810E944100DC01CB01F80191838083FF
:10411000DE01A357BF4FFE01EF56FF4F8081918113
:1041200011969C938E93FE01E357FF4F80819181FE
:104130000197F1F7FE01E357FF4F91838083EAC5B2
:1041400082E00E949511FE01E757FF4F80E090E06A
:10415000AAEFB3E480839183A283B3838E010B57CC
:104160001F4FFE01E757FF4F60817181828193816C
:1041700020E030E04AE755E40E941702DC01CB0161
:10418000F80180839183A283B383FE01EB57FF4F35
:10419000608171818281938120E030E040E85FE3BB
:1041A0000E941D04882344F4FE01ED57FF4F81E077
:1041B00090E09183808364C0FE01EB57FF4F6081E4
:1041C00071818281938120E03FEF4FE757E40E94A5
:1041D000BD0318160CF043C0FE01E757FF4F608186
:1041E00071818281938120E030E040E251E40E94BD
:1041F0001702DC01CB018E010D571F4FBC01CD0111
:104200000E944100DC01CB01F801918380831FC033
:10421000FE01EF57FF4F80E991E091838083FE011B
:10422000EF57FF4F808191810197F1F7FE01EF5722
:10423000FF4F91838083DE01AD57BF4FFE01ED57E5
:10424000FF4F80819181019711969C938E93FE017F
:10425000ED57FF4F808191810097D1F627C08E01E5
:104260000D571F4FFE01EB57FF4F60817181828117
:1042700093810E944100DC01CB01F801918380838E
:10428000DE01A158BF4FFE01ED57FF4F80819181A4
:104290008D939C93FE01E158FF4F8081918101979E
:1042A000F1F7FE01E158FF4F9183808382E00E9485
:1042B000C611FE01E558FF4F80E090E0AAEFB3E49D
:1042C00080839183A283B3838E0109581F4FFE011F
:1042D000E558FF4F608171818281938120E030E059
:1042E0004AE755E40E941702DC01CB01F801808304
:1042F0009183A283B383FE01E958FF4F60817181EE
:104300008281938120E030E040E85FE30E941D0459
:10431000882344F4FE01EB58FF4F81E090E0918345
:10432000808364C0FE01E958FF4F60817181828102
:10433000938120E03FEF4FE757E40E94BD0318163A
:104340000CF043C0FE01E558FF4F6081718182810E
:10435000938120E030E040E251E40E941702DC014A
:10436000CB018E010B581F4FBC01CD010E944100B3
:10437000DC01CB01F801918380831FC0FE01ED5861
:10438000FF4F80E991E091838083FE01ED58FF4F5C
:10439000808191810197F1F7FE01ED58FF4F9183E4
:1043A0008083DE01AB58BF4FFE01EB58FF4F808189
:1043B0009181019711969C938E93FE01EB58FF4FCC
:1043C000808191810097D1F627C08E010B581F4F35
:1043D000FE01E958FF4F60817181828193810E94C3
:1043E0004100DC01CB01F80191838083DE01AF58ED
:1043F000BF4FFE01EB58FF4F808191818D939C93BD
:10440000FE01EF58FF4F808191810197F1F7FE0186
:10441000EF58FF4F9183808382E00E949511FE0147
:10442000E359FF4F80E090E0A8ECB2E480839183F1
:10443000A283B3838E0107591F4FFE01E359FF4F3B
:10444000608171818281938120E030E04AE755E408
:104450000E941702DC01CB01F80180839183A283C3
:10446000B383FE01E759FF4F60817181828193819F
:1044700020E030E040E85FE30E941D04882344F41C
:10448000FE01E959FF4F81E090E09183808364C091
:10449000FE01E759FF4F608171818281938120E0A5
:1044A0003FEF4FE757E40E94BD0318160CF043C0DE
:1044B000FE01E359FF4F608171818281938120E089
:1044C00030E040E251E40E941702DC01CB018E0192
:1044D00009591F4FBC01CD010E944100DC01CB01F5
:1044E000F801918380831FC0FE01EB59FF4F80E9E3
:1044F00091E091838083FE01EB59FF4F8081918190
:104500000197F1F7FE01EB59FF4F91838083DE01A4
:10451000A959BF4FFE01E959FF4F80819181019751
:1045200011969C938E93FE01E959FF4F80819181F2
:104530000097D1F627C08E0109591F4FFE01E75998
:10454000FF4F60817181828193810E944100DC0173
:10455000CB01F80191838083DE01AD59BF4FFE018D
:10456000E959FF4F808191818D939C93FE01ED5914
:10457000FF4F808191810197F1F7FE01ED59FF4FC7
:104580009183808382E00E94C611FE01E15AFF4FB1
:1045900080E090E0A8ECB2E480839183A283B383AF
:1045A0008E01055A1F4FFE01E15AFF4F6081718154
:1045B0008281938120E030E04AE755E40E941702AF
:1045C000DC01CB01F80180839183A283B383FE01D8
:1045D000E55AFF4F608171818281938120E030E054
:1045E00040E85FE30E941D04882344F4FE01E75A7B
:1045F000FF4F81E090E09183808364C0FE01E55A23
:10460000FF4F608171818281938120E03FEF4FE70E
:1046100057E40E94BD0318160CF043C0FE01E15A96
:10462000FF4F608171818281938120E030E040E220
:1046300051E40E941702DC01CB018E01075A1F4F83
:10464000BC01CD010E944100DC01CB01F801918346
:1046500080831FC0FE01E95AFF4F80E991E09183FA
:104660008083FE01E95AFF4F808191810197F1F724
:10467000FE01E95AFF4F91838083DE01A75ABF4FA5
:10468000FE01E75AFF4F80819181019711969C931B
:104690008E93FE01E75AFF4F808191810097D1F6FA
:1046A00027C08E01075A1F4FFE01E55AFF4F608158
:1046B0007181828193810E944100DC01CB01F8016C
:1046C00091838083DE01AB5ABF4FFE01E75AFF4F53
:1046D000808191818D939C93FE01EB5AFF4F8081E5
:1046E00091810197F1F7FE01EB5AFF4F918380838F
:1046F00082E00E949511FE01EF5AFF4F80E090E0AA
:10470000AAEFB3E480839183A283B3838E01035B1A
:104710001F4FFE01EF5AFF4F6081718182819381AB
:1047200020E030E04AE755E40E941702DC01CB01AB
:10473000F80180839183A283B383FE01E35BFF4F83
:10474000608171818281938120E030E040E85FE305
:104750000E941D04882344F4FE01E55BFF4F81E0C5
:1047600090E09183808364C0FE01E35BFF4F608132
:1047700071818281938120E03FEF4FE757E40E94EF
:10478000BD0318160CF043C0FE01EF5AFF4F6081C5
:1047900071818281938120E030E040E251E40E9407
:1047A0001702DC01CB018E01055B1F4FBC01CD015F
:1047B0000E944100DC01CB01F801918380831FC07E
:1047C000FE01E75BFF4F80E991E091838083FE016A
:1047D000E75BFF4F808191810197F1F7FE01E75B75
:1047E000FF4F91838083DE01A55BBF4FFE01E55B38
:1047F000FF4F80819181019711969C938E93FE01CA
:10480000E55BFF4F808191810097D1F627C08E0133
:10481000055B1F4FFE01E35BFF4F60817181828169
:1048200093810E944100DC01CB01F80191838083D8
:10483000DE01A95BBF4FFE01E55BFF4F80819181E7
:104840008D939C93FE01E95BFF4F808191810197DD
:10485000F1F7FE01E95BFF4F9183808382E00E94C4
:10486000C611FE01ED5BFF4F80E090E0AAEFB3E4DC
:1048700080839183A283B3838E01015C1F4FFE016D
:10488000ED5BFF4F608171818281938120E030E098
:104890004AE755E40E941702DC01CB01F80180834E
:1048A0009183A283B383FE01FF966081718182812F
:1048B000938120E030E040E85FE30E941D048823FC
:1048C0002CF481E090E09EAF8DAF46C0FE01FF96D4
:1048D000608171818281938120E03FEF4FE757E44F
:1048E0000E94BD03181664F5FE01ED5BFF4F608169
:1048F00071818281938120E030E040E251E40E94A6
:104900001702DC01CB01BC01CD010E944100DC019A
:10491000CB019EAF8DAF0FC080E991E09CAF8BAF14
:104920008BAD9CAD0197F1F79CAF8BAF8DAD9EAD7C
:1049300001979EAF8DAF8DAD9EAD009769F716C004
:10494000FE01FF9660817181828193810E94410006
:10495000DC01CB019EAF8DAF8DAD9EAD9AAF89AF1F
:1049600089AD9AAD0197F1F79AAF89AF82E00E94C5
:10497000951180E090E0A8ECB2E48DAB9EABAFABBC
:10498000B8AF6DA97EA98FA998AD20E030E04AE7C5
:1049900055E40E941702DC01CB0189AB9AABABABAB
:1049A000BCAB69A97AA98BA99CA920E030E040E8BA
:1049B0005FE30E941D0488232CF481E090E098AB13
:1049C0008FA73FC069A97AA98BA99CA920E03FEFD6
:1049D0004FE757E40E94BD0318164CF56DA97EA958
:1049E0008FA998AD20E030E040E251E40E94170228
:1049F000DC01CB01BC01CD010E944100DC01CB01F7
:104A000098AB8FA70FC080E991E09EA78DA78DA5D9
:104A10009EA50197F1F79EA78DA78FA598A901974D
:104A200098AB8FA78FA598A9009769F714C069A9BB
:104A30007AA98BA99CA90E944100DC01CB0198AB0B
:104A40008FA78FA598A99CA78BA78BA59CA501973D
:104A5000F1F79CA78BA782E00E94C61180E090E04E
:104A6000A8ECB2E48FA398A7A9A7BAA76FA178A5CD
:104A700089A59AA520E030E04AE755E40E94170294
:104A8000DC01CB018BA39CA3ADA3BEA36BA17CA136
:104A90008DA19EA120E030E040E85FE30E941D046C
:104AA00088232CF481E090E09AA389A33FC06BA1F6
:104AB0007CA18DA19EA120E03FEF4FE757E40E942B
:104AC000BD0318164CF56FA178A589A59AA520E01D
:104AD00030E040E251E40E941702DC01CB01BC014E
:104AE000CD010E944100DC01CB019AA389A30FC034
:104AF00080E991E098A38F8F8F8D98A10197F1F7AE
:104B000098A38F8F89A19AA101979AA389A389A1BC
:104B10009AA1009769F714C06BA17CA18DA19EA1F9
:104B20000E944100DC01CB019AA389A389A19AA12B
:104B30009E8F8D8F8D8D9E8D0197F1F79E8F8D8F1E
:104B400082E00E94951180E090E0A8E4B3E4898FB0
:104B50009A8FAB8FBC8F698D7A8D8B8D9C8D20E069
:104B600030E04AE755E40E941702DC01CB018D8B4F
:104B70009E8BAF8BB88F6D897E898F89988D20E051
:104B800030E040E85FE30E941D0488232CF481E0BC
:104B900090E09C8B8B8B3FC06D897E898F89988D2F
:104BA00020E03FEF4FE757E40E94BD0318164CF595
:104BB000698D7A8D8B8D9C8D20E030E040E251E450
:104BC0000E941702DC01CB01BC01CD010E94410013
:104BD000DC01CB019C8B8B8B0FC080E991E09A8B21
:104BE000898B89899A890197F1F79A8B898B8B89AF
:104BF0009C8901979C8B8B8B8B899C89009769F78B
:104C000014C06D897E898F89988D0E944100DC01D6
:104C1000CB019C8B8B8B8B899C89988B8F878F8505
:104C200098890197F1F7988B8F8782E00E94C611CF
:104C300080E090E0A8E4B3E48B879C87AD87BE87D3
:104C40006B857C858D859E8520E030E04AE755E4C4
:104C50000E941702DC01CB018F839887A987BA874E
:104C60006F81788589859A8520E030E040E85FE3B0
:104C70000E941D0488232CF481E090E09E838D83A4
:104C80003FC06F81788589859A8520E03FEF4FE7A7
:104C900057E40E94BD0318164CF56B857C858D8505
:104CA0009E8520E030E040E251E40E941702DC01E2
:104CB000CB01BC01CD010E944100DC01CB019E83F0
:104CC0008D830FC080E991E09C838B838B819C81D5
:104CD0000197F1F79C838B838D819E8101979E8341
:104CE0008D838D819E81009769F714C06F817885CF
:104CF00089859A850E944100DC01CB019E838D83CA
:104D00008D819E819A83898389819A810197F1F7A8
:104D10009A838983C955DE4F0FB6F894DEBF0FBE64
:104D2000CDBFCF91DF911F910F910895DF93CF9366
:104D3000CDB7DEB7E4970FB6F894DEBF0FBECDBF98
:104D400081E061E041E00E94993581E062E041E06C
:104D50000E94993581E063E041E00E94993580E04E
:104D600064E041E00E94993580E065E041E00E9406
:104D7000993580E066E041E00E94993580E067E087
:104D800041E00E94993581E062E040E00E947C367B
:104D900080E090E0A0E7B1E489AB9AABABABBCABF1
:104DA00069A97AA98BA99CA920E030E04AE755E4DB
:104DB0000E941702DC01CB018DA79EA7AFA7B8AB5D
:104DC0006DA57EA58FA598A920E030E040E85FE3BF
:104DD0000E941D0488232CF481E090E09CA78BA7FF
:104DE0003FC06DA57EA58FA598A920E03FEF4FE7B6
:104DF00057E40E94BD0318164CF569A97AA98BA93E
:104E00009CA920E030E040E251E40E941702DC015E
:104E1000CB01BC01CD010E944100DC01CB019CA76C
:104E20008BA70FC080E991E09AA789A789A59AA5C9
:104E30000197F1F79AA789A78BA59CA501979CA735
:104E40008BA78BA59CA5009769F714C06DA57EA5BF
:104E50008FA598A90E944100DC01CB019CA78BA7DC
:104E60008BA59CA598A78FA38FA198A50197F1F773
:104E700098A78FA380E30E946F2A80E090E0A0EAC9
:104E8000B0E48BA39CA3ADA3BEA36BA17CA18DA119
:104E90009EA120E030E04AE755E40E941702DC01C1
:104EA000CB018F8F98A3A9A3BAA36F8D78A189A1F5
:104EB0009AA120E030E040E85FE30E941D048823CF
:104EC0002CF481E090E09E8F8D8F3FC06F8D78A194
:104ED00089A19AA120E03FEF4FE757E40E94BD036C
:104EE00018164CF56BA17CA18DA19EA120E030E0AD
:104EF00040E251E40E941702DC01CB01BC01CD016C
:104F00000E944100DC01CB019E8F8D8F0FC080E994
:104F100091E09C8F8B8F8B8D9C8D0197F1F79C8FEF
:104F20008B8F8D8D9E8D01979E8F8D8F8D8D9E8DFC
:104F3000009769F714C06F8D78A189A19AA10E948A
:104F40004100DC01CB019E8F8D8F8D8D9E8D9A8FC0
:104F5000898F898D9A8D0197F1F79A8F898F80E3D8
:104F60000E946F2A80E090E0A8ECB2E48D8B9E8BCB
:104F7000AF8BB88F6D897E898F89988D2BEA3AEA3D
:104F80004AEA50E40E941702DC01CB01898B9A8B1C
:104F9000AB8BBC8B69897A898B899C8920E030E056
:104FA00040E85FE30E941D0488231CF481E0888BA5
:104FB00091C069897A898B899C8920E030E04FE72C
:104FC00053E40E94BD0318160CF07BC06D897E89E6
:104FD0008F89988D20E030E04AE754E40E94110365
:104FE000DC01CB018C879D87AE87BF876C857D8573
:104FF0008E859F8520E030E04AE755E40E94170245
:10500000DC01CB0188879987AA87BB87688579856A
:105010008A859B8520E030E040E85FE30E941D0424
:1050200088232CF481E090E09F838E833FC06885C5
:1050300079858A859B8520E03FEF4FE757E40E9402
:10504000BD0318164CF56C857D858E859F8520E007
:1050500030E040E251E40E941702DC01CB01BC01C8
:10506000CD010E944100DC01CB019F838E830FC0E4
:1050700080E991E09D838C838C819D810197F1F77C
:105080009D838C838E819F8101979F838E838E81E8
:105090009F81009769F724C0688579858A859B85FB
:1050A0000E944100DC01CB019F838E838E819F8112
:1050B0009B838A838A819B810197F1F79B838A83F3
:1050C0000FC069897A898B899C890E944100DC0123
:1050D000CB01888B8889898389818A95F1F78983B7
:1050E00083E00E946F2A82E00E946F2A88E20E9479
:1050F0006F2AE4960FB6F894DEBF0FBECDBFCF91F6
:10510000DF910895DF93CF93CDB7DEB768970FB6E1
:10511000F894DEBF0FBECDBF81E063E041E00E94A6
:105120007C3680E090E0A0E8BFE38D8B9E8BAF8B58
:10513000B88F6D897E898F89988D2BEA3AEA4AEA81
:1051400050E40E941702DC01CB01898B9A8BAB8B58
:10515000BC8B69897A898B899C8920E030E040E8A2
:105160005FE30E941D0488231CF481E0888B91C0BA
:1051700069897A898B899C8920E030E04FE753E484
:105180000E94BD0318160CF07BC06D897E898F8943
:10519000988D20E030E04AE754E40E941103DC01DE
:1051A000CB018C879D87AE87BF876C857D858E857B
:1051B0009F8520E030E04AE755E40E941702DC01B9
:1051C000CB0188879987AA87BB87688579858A8577
:1051D0009B8520E030E040E85FE30E941D048823C7
:1051E0002CF481E090E09F838E833FC068857985B1
:1051F0008A859B8520E03FEF4FE757E40E94BD037F
:1052000018164CF56C857D858E859F8520E030E0F5
:1052100040E251E40E941702DC01CB01BC01CD0148
:105220000E944100DC01CB019F838E830FC080E987
:1052300091E09D838C838C819D810197F1F79D8303
:105240008C838E819F8101979F838E838E819F8126
:10525000009769F724C0688579858A859B850E94B7
:105260004100DC01CB019F838E838E819F819B83D4
:105270008A838A819B810197F1F79B838A830FC080
:1052800069897A898B899C890E944100DC01CB0164
:10529000888B8889898389818A95F1F7898381E060
:1052A00063E040E00E947C3668960FB6F894DEBF5B
:1052B0000FBECDBFCF91DF910895DF93CF93CDB7D0
:1052C000DEB76F970FB6F894DEBF0FBECDBF8F8FDE
:1052D00081E061E041E00E947C368F8D807F8E8F7F
:1052E0008F8D8295807F8D8F80E06E8D4FE00E9444
:1052F000D8370E94822880E090E0A0E0B0E4898F57
:105300009A8FAB8FBC8F698D7A8D8B8D9C8D20E0B1
:1053100030E04AE755E40E941702DC01CB018D8B97
:105320009E8BAF8BB88F6D897E898F89988D20E099
:1053300030E040E85FE30E941D0488232CF481E004
:1053400090E09C8B8B8B3FC06D897E898F89988D77
:1053500020E03FEF4FE757E40E94BD0318164CF5DD
:10536000698D7A8D8B8D9C8D20E030E040E251E498
:105370000E941702DC01CB01BC01CD010E9441005B
:10538000DC01CB019C8B8B8B0FC080E991E09A8B69
:10539000898B89899A890197F1F79A8B898B8B89F7
:1053A0009C8901979C8B8B8B8B899C89009769F7D3
:1053B00014C06D897E898F89988D0E944100DC011F
:1053C000CB019C8B8B8B8B899C89988B8F878F854E
:1053D00098890197F1F7988B8F8780E06D8D4FE06A
:1053E0000E94D8370E94822880E090E0A0E0B0E4DC
:1053F0008B879C87AD87BE876B857C858D859E85D9
:1054000020E030E04AE755E40E941702DC01CB01BE
:105410008F839887A987BA876F81788589859A85D0
:1054200020E030E040E85FE30E941D0488232CF474
:1054300081E090E09E838D833FC06F817885898570
:105440009A8520E03FEF4FE757E40E94BD0318160E
:105450004CF56B857C858D859E8520E030E040E2B3
:1054600051E40E941702DC01CB01BC01CD010E9476
:105470004100DC01CB019E838D830FC080E991E068
:105480009C838B838B819C810197F1F79C838B8319
:105490008D819E8101979E838D838D819E81009752
:1054A00069F714C06F81788589859A850E944100CB
:1054B000DC01CB019E838D838D819E819A838983BC
:1054C00089819A810197F1F79A8389836F960FB644
:1054D000F894DEBF0FBECDBFCF91DF910895DF936B
:1054E000CF93CDB7DEB76F970FB6F894DEBF0FBE80
:1054F000CDBF8F8F8F8D807F8E8F8F8D8295807F98
:105500008D8F81E061E040E00E947C3680E06E8D0E
:105510004FE00E94D8370E94822880E090E0A0E00F
:10552000B0E4898F9A8FAB8FBC8F698D7A8D8B8D0C
:105530009C8D20E030E04AE755E40E941702DC0130
:10554000CB018D8B9E8BAF8BB88F6D897E898F89B8
:10555000988D20E030E040E85FE30E941D0488233E
:105560002CF481E090E09C8B8B8B3FC06D897E8911
:105570008F89988D20E03FEF4FE757E40E94BD03ED
:1055800018164CF5698D7A8D8B8D9C8D20E030E05E
:1055900040E251E40E941702DC01CB01BC01CD01C5
:1055A0000E944100DC01CB019C8B8B8B0FC080E9FA
:1055B00091E09A8B898B89899A890197F1F79A8B67
:1055C000898B8B899C8901979C8B8B8B8B899C8980
:1055D000009769F714C06D897E898F89988D0E9424
:1055E0004100DC01CB019C8B8B8B8B899C89988B38
:1055F0008F878F8598890197F1F7988B8F8780E047
:105600006D8D4FE00E94D8370E94822880E090E0A4
:10561000A0E0B0E48B879C87AD87BE876B857C85D7
:105620008D859E8520E030E04AE755E40E94170210
:10563000DC01CB018F839887A987BA876F81788532
:1056400089859A8520E030E040E85FE30E941D04F0
:1056500088232CF481E090E09E838D833FC06F818E
:10566000788589859A8520E03FEF4FE757E40E94CF
:10567000BD0318164CF56B857C858D859E8520E0D5
:1056800030E040E251E40E941702DC01CB01BC0192
:10569000CD010E944100DC01CB019E838D830FC0B0
:1056A00080E991E09C838B838B819C810197F1F74A
:1056B0009C838B838D819E8101979E838D838D81B9
:1056C0009E81009769F714C06F81788589859A85D6
:1056D0000E944100DC01CB019E838D838D819E81E0
:1056E0009A83898389819A810197F1F79A838983C3
:1056F0006F960FB6F894DEBF0FBECDBFCF91DF918E
:105700000895DF93CF9300D000D0CDB7DEB7898363
:105710006A838981282F30E03C832B838B819C8195
:10572000009731F02B813C812130310531F009C0E7
:105730008A8180580E946F2A04C08A8180540E9406
:105740006F2A0F900F900F900F90CF91DF910895D7
:10575000DF93CF9300D000D0CDB7DEB79C838B838F
:105760001A82198222C029813A818B819C81FC0195
:10577000E20FF31F80818823E9F089819A818F30BD
:10578000910521F481E060E00E94812B29813A811A
:105790008B819C81FC01E20FF31F80810E945D29B7
:1057A00089819A8101969A83898389819A8180323D
:1057B0009105CCF20F900F900F900F90CF91DF9149
:1057C0000895DF93CF93CDB7DEB729970FB6F8943E
:1057D000DEBF0FBECDBF6E837F83888799878DB76D
:1057E0009EB708970FB6F8949EBF0FBE8DBFEDB75A
:1057F000FEB73196CE010196918380838CE790E0CD
:10580000938382838E819F81A885B98584839583C4
:10581000A683B7830E947C3A8DB79EB708960FB6D1
:10582000F8949EBF0FBE8DBFCE0101960E94A82B9B
:1058300029960FB6F894DEBF0FBECDBFCF91DF9192
:105840000895DF93CF93CDB7DEB72E970FB6F894B8
:10585000DEBF0FBECDBF1982CE0102969B878A871D
:10586000EDE9F1E0FD87EC87F8E0FE87EC85FD854A
:1058700000808C859D8501969D878C87EA85FB85B8
:1058800000828A859B8501969B878A879E85915099
:105890009E87EE85EE2351F7198212C08981805CC4
:1058A0000E946F2A8981282F30E0CE010296FC01E8
:1058B000E20FF31F80810E945D2989818F5F8983B8
:1058C0008981883058F38EE80E946F2A80E00E9418
:1058D0005D292E960FB6F894DEBF0FBECDBFCF91D7
:1058E000DF910895DF93CF93CDB7DEB72E970FB634
:1058F000F894DEBF0FBECDBF6B877C878D879E87F8
:105900008DB79EB708970FB6F8949EBF0FBE8DBF98
:10591000EDB7FEB73196CE010196918380838FE774
:1059200090E0938382838B859C85AD85BE8584833F
:105930009583A683B7830E947C3A8DB79EB708965D
:105940000FB6F8949EBF0FBE8DBFCE0101960E9488
:10595000A82B2E960FB6F894DEBF0FBECDBFCF9109
:10596000DF910895DF93CF93CDB7DEB782E060E09B
:1059700040E00E94993582E061E040E00E94993564
:1059800082E062E040E00E94993582E063E040E01E
:105990000E94993582E064E041E00E94993582E0FE
:1059A00065E041E00E94993582E066E041E00E94B6
:1059B000993582E067E041E00E94993582E064E039
:1059C00040E00E947C3682E065E040E00E947C3648
:1059D00082E066E040E00E947C3682E067E040E0E2
:1059E0000E947C3682E060E00E94343882E061E010
:1059F0000E94343882E062E00E94343882E063E042
:105A00000E943438CF91DF910895DF93CF93CDB7C3
:105A1000DEB782E064E040E00E947C3682E065E030
:105A200040E00E947C3682E066E040E00E947C36E6
:105A300082E067E040E00E947C36CF91DF910895DC
:105A4000DF93CF930F92CDB7DEB782E060E00E9484
:105A50005F37882391F082E061E00E945F378823FE
:105A600061F082E062E00E945F37882331F082E0DB
:105A700063E00E945F37882311F4198202C081E03D
:105A8000898389810F90CF91DF910895DF93CF9320
:105A90000F92CDB7DEB78FEF898382E060E00E947E
:105AA0005F37882311F419821DC082E061E00E94F3
:105AB0005F37882319F481E0898314C082E062E0B3
:105AC0000E945F37882319F482E089830BC082E04B
:105AD00063E00E945F37882319F483E0898302C062
